:100000000C9498010C94C0010C94C0010C94C00194
:100010000C94C0010C94BE230C94C0010C94972343
:100020000C94C0010C94C0010C94C0010C94C0014C
:100030000C94C0010C94C0010C94C0010C94C0013C
:100040000C944D230C94C0010C94C0010C94C0017D
:100050000C94C0010C94C0010C94C0010C94C0011C
:100060000C94C0010C94C00108000000BE92244909
:10007000123EABAAAA2ABECDCCCC4C3E00000080DA
:10008000BEABAAAAAA3E00000000BF000000803F4D
:100090000000000000084178D3BB4387D1133D190D
:1000A0000E3CC3BD4282AD2B3E68EC8276BED98F3A
:1000B000E1A93E4C80EFFFBE01C4FF7F3F0000007E
:1000C0000000202020202020202000FFFEFCF9F549
:1000D000EFE9E2D9D0C6BBB0A4988B7F73665A4EC5
:1000E00043382E251C150F09050275534458003A54
:1000F00020004261636B6C6967687400495120504D
:1001000068617365005265662066726571005041D2
:100110002042696173206D6178005041204269611D
:1001200073206D696E004351204D6573736167657F
:1001300000435120496E74657276616C20202A3527
:10014000736563004D6963204761696E004E6F6996
:1001500073652047617465004B657965722053773C
:100160006170004B65796572204D6F6465004B6569
:100170007965722053706565640043572044656358
:100180006F64657200532D6D65746572004154543F
:10019000320041545431004E52004147430052490D
:1001A000540056464F204D6F64650054756E6520AF
:1001B000526174650042616E640046696C746572D8
:1001C000204257004D6F646500566F6C756D650079
:1001D000436865636B205054542F6B6579005265FA
:1001E0007365742073657474696E67732E2E0030A6
:1001F000362E30360020520008040A050A04080092
:10020000000000000000000010101010101010106E
:1002100010101414141414141010151515151515A8
:100220000C121E12120000001C121C121C000000F6
:10023000000000000000000064426D2000506F7755
:1002400065722D6F6666203733203A2D290052499A
:100250005420007E20455449414E4D535552574439
:100260004B474F4856462A4C2A504A425843595AFF
:10027000512A2A353453332A2A2A322A2A2B2A2A67
:100280002A4A31363D2F2A2A2A482A372A472A382D
:100290002A39302A2A2A2A2A2A2A2A2A2A2A2A3F94
:1002A0005F2A2A2A2A222A2A2E2A2A2A2A402A2A67
:1002B0002A272A2A2D2A2A2A2A2A2A2A2A3B212A96
:1002C000292A2A2A2A2A2C2A2A2A2A3A2A2A2A2A7D
:1002D0000000000000240027002A00000000002584
:1002E0000028002B00000000002300260029000445
:1002F00004040404040404020202020202030303CD
:1003000003030301020408102040800102040810C6
:100310002001020408102000000008000201000073
:100320000304070000000000000000006C328B3264
:1003300011241FBECFEFD8E0DEBFCDBF13E0A0E099
:10034000B1E0E2E3FEE602C005900D92A235B107EE
:10035000D9F725E0A2E5B3E001C01D92A939B207A3
:10036000E1F711E0C7E9D1E004C02197FE010E9446
:10037000E535C639D107C9F70E9409240C940C371A
:100380000C94000087FF76C03C983D980000000068
:10039000000000003D9A000000000000000086FF01
:1003A0006BC03C983D9800000000000000003D9AA2
:1003B000000000000000000085FF60C03C983D98F0
:1003C00000000000000000003D9A00000000000056
:1003D000000084FF55C03C983D98000000000000DC
:1003E00000003D9A000000000000000083FF4AC0AA
:1003F0003C983D9800000000000000003D9A00007D
:1004000000000000000082FF3FC03C983D980000C3
:100410000000000000003D9A000000000000000005
:1004200081FF34C03C983D980000000000000000AF
:100430003D9A000000000000000080FF29C03C98A9
:100440003D9800000000000000003D9A0000000000
:10045000000000003C9800000000000000003D98F3
:1004600000000000000000003D9A000000000000B5
:10047000000008953C9A89CF3C9A94CF3C9A9FCF34
:100480003C9AAACF3C9AB5CF3C9AC0CF3C9ACBCFEE
:100490003C9AD6CF2F923F924F925F926F927F926B
:1004A0008F929F92AF92BF92CF92DF92EF92FF9284
:1004B0000F931F93CF93DF9300D000D0CDB7DEB75B
:1004C00020918205309183054091840550918505E6
:1004D00029833A834B835C8320917F05C0908E05EE
:1004E000D0908F05E0909005F090910530E0DC0110
:1004F0000E9402364B015C01BB0C8808982C540109
:100500009B01AC01682D782D882D982D07E10E9464
:10051000F33656016701E12CF12C00E010E00E9457
:100520001E3649015A0149805A806B807C80480CF4
:10053000591C6A1C7B1C8091800590918105860D59
:10054000971D80938A0580E180938B05852D9927DF
:1005500080938C0540928D050F900F900F900F9017
:10056000DF91CF911F910F91FF90EF90DF90CF908F
:10057000BF90AF909F908F907F906F905F904F90C3
:100580003F902F900895833081F028F4813099F0C6
:100590008230A9F008958730A9F08830C9F08430FE
:1005A000B1F4809180008F7D03C0809180008F77AF
:1005B00080938000089584B58F7784BD089584B5B5
:1005C0008F7DFBCF8091B0008F778093B00008952E
:1005D0008091B0008F7DF9CFCF93DF93282F30E04B
:1005E000F901E95EFC4F8491F901ED5FFC4FD49174
:1005F000F901E151FD4FC491CC23A1F081110E947A
:10060000C302EC2FF0E0EE0FFF1FEB51FD4FA59161
:10061000B491EC91ED2381E090E009F480E0DF916A
:10062000CF91089580E090E0FACF1F93CF93DF93AE
:10063000282F30E0F901E95EFC4F8491F901ED5F6C
:10064000FC4FD491F901E151FD4FC491CC23A9F0A5
:10065000162F81110E94C302EC2FF0E0EE0FFF1F56
:10066000E552FD4FA591B4918FB7F894EC9111111B
:1006700008C0D095DE23DC938FBFDF91CF911F910F
:100680000895DE2BF8CFCF93DF9390E0FC01ED5F70
:10069000FC4F249181519D4FFC0184918823C9F026
:1006A00090E0880F991FFC01EF52FD4FA591B49186
:1006B000FC01E552FD4FC591D49161110DC09FB76A
:1006C000F8948C91209582238C9388812823288309
:1006D0009FBFDF91CF910895623051F49FB7F89496
:1006E0003C91822F809583238C93E8812E2BEFCF32
:1006F0008FB7F894EC912E2B2C938FBFEACF3FB796
:10070000F8948091760590917705A0917805B09145
:10071000790526B5A89B05C02F3F19F00196A11DAC
:10072000B11D3FBFBA2FA92F982F8827BC01CD013B
:10073000620F711D811D911D42E0660F771F881F9A
:10074000991F4A95D1F708958F929F92AF92BF92C9
:10075000CF92DF92EF92FF926B017C010E947F03A8
:100760004B015C01C114D104E104F104B9F00E9411
:100770007F03681979098A099B09683E73408105DE
:10078000910580F321E0C21AD108E108F10888EE52
:10079000880E83E0981EA11CB11CE4CFFF90EF905F
:1007A000DF90CF90BF90AF909F908F9008952FB71C
:1007B000F894609172057091730580917405909121
:1007C00075052FBF0895AF92BF92CF92DF92EF923F
:1007D000FF920F931F93CF93DF936C017B018B01EB
:1007E000040F151FEB015E01AE18BF08C017D1073B
:1007F00059F06991D601ED91FC910190F081E02DC5
:10080000C6010995892B79F7C501DF91CF911F9119
:100810000F91FF90EF90DF90CF90BF90AF90089531
:100820003C9A3D9800000000000000003C9887B111
:100830008F7C87B93C9A08953D9A00000000000023
:1008400000003C980895CF93DF930E941C0480EC35
:100850000E94C2018EE10E94C201CBE7D5E08F85E4
:100860000E94C20188890E94C20189890E94C20136
:100870008A890E94C201DF91CF910C941004CF931A
:10088000DF93D82FC62F0E941C0480E40E94C2016F
:100890008D2F0E94C2018C2F0E94C201DF91CF9147
:1008A0000C941004CF93DF93D82FC92F6FEF87E0FC
:1008B0000E943F046FEF86E00E943F046D2F82E0AC
:1008C0000E943F0460E086E00E943F046C2F83E0BA
:1008D0000E943F0460E087E0DF91CF910C943F04D9
:1008E000FF920F931F93CF93DF93C82FF62E072FFE
:1008F000142F0E941C0480EC0E94C2018C2F0E94C5
:10090000C201CF2DD02F115020F089910E94C20139
:10091000FACFDF91CF911F910F91FF900C941004AB
:10092000CF93DF931F92CDB7DEB7698341E0BE015D
:100930006F5F7F4F0E9470040F90DF91CF910895F9
:100940002F923F924F925F926F927F928F929F92DF
:10095000AF92BF92CF92DF92EF92FF920F931F93CD
:10096000CF93DF93CDB7DEB764970FB6F894DEBFB1
:100970000FBECDBF898B48015901FB8AEA8ACC8A18
:10098000CB01BA01A90198010E94A43529011901DE
:100990002430310509F497C09B01AC0160E070E0A0
:1009A00080E090E000E10E94F336F90175016401F6
:1009B00000E010E098018986DA86AB86FC860D8718
:1009C0001E872F87388B54016701E12CF12C00E042
:1009D00010E09F010E944F36A32FF42FE52F422FE6
:1009E0005A2F6F2F7E2FC12CD12C7601E394CB018F
:1009F000BA0127E0660F771F881F991F2A95D1F744
:100A0000A70196010E94A43542019694982C88244F
:100A100097948794B12CA12C02E0901AA108B108F8
:100A2000280D391D4A1D5B1DBC89A0E1BA9FF0014C
:100A30001124842E8E2AE4E02E16310409F04CC0D5
:100A4000ECE01982CA828E2A8B823C832D8394E04B
:100A5000CC0CDD1CEE1CFF1C9A95D1F7E82AEE8227
:100A60007F83688748E0BE016F5F7F4F8989880F69
:100A7000880F880F865D0E947004612F6295660F53
:100A8000660F607CC988C7FE29C060688C2D885EAF
:100A90000E94900464960FB6F894DEBF0FBECDBFDF
:100AA000DF91CF911F910F91FF90EF90DF90CF904A
:100AB000BF90AF909F908F907F906F905F904F907E
:100AC0003F902F90089540E050E0BA0111E0C12C12
:100AD000D12C7601C3948BCFE0E0B3CF6F608989CE
:100AE000805F0E949004EA88FB88E49CA001E59C5A
:100AF000500DF49C500D112421E01227212F30E0DD
:100B0000429FC001439F900D529F900D11246AE5B2
:100B100070E00E947C3589898B55BACF2F923F9225
:100B20004F925F926F927F928F929F92AF92BF92FD
:100B3000CF92DF92EF92FF920F931F93CF93DF93A9
:100B4000CDB7DEB760970FB6F894DEBF0FBECDBF4E
:100B50004B015C0149875A8329833B8321E082163C
:100B600023EA920621EEA20621E1B206DCF023E0A0
:100B700030E0CA01B9010E947C3569877A83898196
:100B80009B81B9010E947C3569837B83C501B401D7
:100B900023E030E040E050E00E94C63549015A01B0
:100BA000188611C060E2861661EA960667E0A6061E
:100BB000B104B4F747E0880C991CAA1CBB1C4A95E9
:100BC000D1F777E0788780E8881683EC980689EC7F
:100BD000A80681E0B806CCF460918E0570918F056F
:100BE0008091900590919105A0EE8A16A7E69A064D
:100BF000A5E3AA06B1040CF445C124E0660F771FF3
:100C0000881F991F2A95D1F749C160918E0570916F
:100C10008F05809190059091910535E0660F771FC3
:100C2000881F991F3A95D1F7A50194010E94A43518
:100C30001901B1E08B16BBE39B06B8E5AB06B8E043
:100C4000BB060CF031C120FE03C02FEF221A320A7E
:100C5000D101A501940128583341410951090E944D
:100C600009366B017C0120918E0530918F054091F2
:100C700090055091910540908E0550908F056090A1
:100C80009005709091054C825D826E827F820E94F9
:100C9000A43529013A019101A0E1B7E20E94F335A0
:100CA0006C0D7D1D8E1D9F1D2C813D814E815F81B0
:100CB0000E94A435421653066406750619F022E018
:100CC000220E311CD101A50194010E9409362B018D
:100CD0003C0100918E0510918F0520919005309177
:100CE0009105C12CF12CE12CBC01A2018EEF0E94D8
:100CF000A004C884E984FA8095018401B301A201AB
:100D000080E00E94A004C884E980FB809501B301C3
:100D1000A20181E00E94A004C884F12CE12C95017D
:100D2000B301A20182E00E94A0046985062E000C96
:100D3000770B8981681B710987FD73957D836C83AF
:100D4000C301B201A50194010E94A435AC81BD810B
:100D5000A29FC001A39F900DB29F900D11246AE540
:100D600070E00E94903580919205909193058617CE
:100D7000970741F0709393056093920560EA81EBC9
:100D80000E9490046CEF83E00E94900480927B05A7
:100D900090927C05A0927D05B0927E0520927F0501
:100DA00020918E0530918F054091900550919105CD
:100DB000C301B2010E94A4352450310941095E4F9C
:100DC0003695322F2227379527953093810520932A
:100DD000800520918E0530918F05409190055091AE
:100DE0009105C0908E05D0908F05E0909005F09011
:100DF0009105C301B2010E94A4352B013C01812C55
:100E0000912C540169875A868B877C868D869E86B5
:100E1000AF86B88A9B01AC0160E070E080E090E0B2
:100E200007E10E94F3362A83398356016701E12CDA
:100E3000F12C00E010E02A8139810E944F36C9016F
:100E4000DA018093820590938305A0938405B09383
:100E5000850560960FB6F894DEBF0FBECDBFDF915B
:100E6000CF911F910F91FF90EF90DF90CF90BF90A7
:100E7000AF909F908F907F906F905F904F903F903A
:100E80002F90089520918E0530918F054091900507
:100E900050919105A7E0B0E00E940936A5019401A8
:100EA0000E94A4351901CFCE94E0292E312CCBCE4F
:100EB000CF936FEF83E00E94900460E188E10E948D
:100EC000900460E089E10E949004C0E160E88C2F0A
:100ED0000E949004CF5FC831C9F760E08BEB0E949D
:100EE000900460E085E90E94900462ED87EBCF9169
:100EF0000C94900480917901882319F05B9A78947E
:100F000008955B98FCCFF8949BB1907F9061892BFA
:100F10008BB98BE090E00197F1F75C980E947A071B
:100F20008BEE90E00197F1F70895CF93C82F82954B
:100F30008F700E9483078C2F8F70CF910C94830742
:100F40008CE00C9495070F931F93CF93DF93409100
:100F50007701C0917801C41BDD0BE5E2F4E030E0DD
:100F600020E00FEF10E0C901B8010E947C35640F4A
:100F700061932C0F3D1F85E0E532F807A1F7DF9163
:100F8000CF911F910F9108958091D5018F5B80685B
:100F90000E9495078EE00C9495079091D501980FCB
:100FA0009093D5019091D501911103C098E0909351
:100FB000D5019091D501993018F091E09093D50129
:100FC0009091D501943021F09091D501923029F47F
:100FD0009091D501890F8093D5010C94C40780911D
:100FE0007A00806480937A0080918A0380938A00DB
:100FF000A0917800B091790020917A01B25030E050
:101000000E94023623E030E040E050E00E94C63506
:10101000DA01C9012B3531054105510544F18A55E5
:101020009109A109B10922E0B595A79597958795F2
:101030002A95D1F7865A9F4FAF4FBF4F89379105F9
:10104000A105B1056CF588382FEF9207A207B2070A
:1010500024F488E89FEFAFEFBFEFBC01605E7F4FE5
:10106000803E9F4F0CF460E060938A030895863AB7
:101070002FEF9207A207B20734F7BC01CA01665AE4
:101080007F4F8F4F9F4F24E030E040E050E00E94C0
:10109000C635DA01C9018A559109A109B109D3CF31
:1010A00088E790E0A0E0B0E0D8CF80917A0080643B
:1010B00080937A008091240580938A000E94230403
:1010C0004091780050917900525080918B0390911B
:1010D0008C039A01281B390B50938C0340938B038C
:1010E00090917A01220F331F240F351F973008F09B
:1010F00096E0A90102C0440F551F9A95E2F7CA0174
:101100000C944A02089590917E00E1E0F0E0082EF0
:1011100001C0EE0F0A94EAF79E2B90937E00109286
:101120007A0010927B0010927C0090917C00892BB9
:1011300080937C0080917C0090E4611190EC892B7D
:1011400080937C0068EB7BE787E190E00E94A43508
:1011500080E0369527952115310511F08F5FF9CF85
:1011600090917A008770892B80937A0080917A0021
:10117000806880937A00089580914C0580937C006C
:10118000EAE7F0E0808180648083209178003091EC
:1011900079002F5F314082E19BE090932705809397
:1011A000260580911D0490911E0440911B045091CE
:1011B0001C04480F591FCA01880F991F840F951FDF
:1011C000820F931F4091190450911A04840F951FA8
:1011D0009595879530931E0420931D042091170444
:1011E000309118044091150450911604420F531F7A
:1011F0009A01220F331F240F351F280F391F4091EA
:10120000130450911404240F351F309312042093BB
:1012100011049093180480931704089580914C054D
:1012200080937C00EAE7F0E0808180648083809195
:1012300078009091790021E939E0309327052093D7
:10124000260520911B0430911C0430931A0420932E
:1012500019048F5F914090931C0480931B040895A0
:1012600080914C0580937C00EAE7F0E08081806407
:10127000808320917800309179002F5F314087E0A2
:101280009AE090932705809326058091150490910C
:101290001604909314048093130480911D0490917C
:1012A0001E0440911B0450911C04480F591FCA0191
:1012B000880F991F840F951F820F931F4091190467
:1012C00050911A04840F951F959587959093160455
:1012D0008093150430931E0420931D04089580917B
:1012E0004C0580937C00EAE7F0E080818064808395
:1012F00080917800909179002CE93AE030932705AD
:101300002093260520911B0430911C0430931A046D
:10131000209319048F5F914090931C0480931B04C9
:10132000089580914D0580937C0080917A008064BF
:1013300080937A0020917800309179002F5F3140BE
:1013400080910B0490910C04820F931F97FD0196DE
:101350009595879530930C0420930B0420915105AB
:10136000222331F110920A0410920904109206040B
:10137000109205042091090430910A043093080466
:101380002093070420E8209388002CEB38E030936A
:1013900027052093260520910F04309110043093E7
:1013A0000E0420930D049093100480930F0408956D
:1013B00040910704509108042091050430910604DF
:1013C000240F351F3093060420930504609109040F
:1013D00070910A04460F571F509308044093070466
:1013E00035952795359527953595279535952795E5
:1013F000359527952F37310514F02FEFC4CF2038BE
:101400004FEF340714F420E83FEF2058BCCF809111
:101410004D0580937C0080917A00806480937A00EF
:1014200040917800509179004F5F514080910B04BA
:1014300090910C04840F951F97FD01969C013595A2
:10144000279550930C0440930B04809151058823F9
:1014500009F443C010920A04109209041092060481
:10146000109205048091090490910A049093080455
:101470008093070480E8809388008EE099E0909341
:10148000270580932605809103049091040490938E
:101490000204809301048091FF0390910004409125
:1014A0000F0450911004480F591FCA01880F991F4B
:1014B000840F951F820F931F40910D0450910E04CD
:1014C000840F951F9595879590930404809303044A
:1014D000309300042093FF03089540910704509136
:1014E00008048091050490910604840F951F909341
:1014F0000604809305046091090470910A04460F64
:10150000571F509308044093070495958795959528
:1015100087959595879595958795959587958F3717
:10152000910514F08FEFA7CF80384FEF940714F494
:1015300080E89FEF80589FCF80914D0580937C007D
:1015400080917A00806480937A00209178003091B5
:1015500079002F5F314080910B0490910C04820F31
:10156000931F97FD01969595879530930C042093D2
:101570000B0420915105222331F110920A0410929C
:101580000904109206041092050420910904309178
:101590000A04309308042093070420E8209388006D
:1015A00020E339E0309327052093260520910F048E
:1015B0003091100430930E0420930D049093100486
:1015C00080930F04089540910704509108042091DE
:1015D000050430910604240F351F30930604209330
:1015E00005046091090470910A04460F571F509337
:1015F000080440930704359527953595279535952B
:10160000279535952795359527952F37310514F072
:101610002FEFC4CF20384FEF340714F420E83FEF0A
:101620002058BCCF4F925F926F927F928F929F9281
:10163000AF92BF92CF92DF92EF92FF920F931F93E0
:10164000CF9380914D0580937C0080917A008064D7
:1016500080937A0040917800509179004F5F51401B
:1016600080910B0490910C04840F951F97FD0196B7
:101670009C013595279550930C0440930B04809161
:101680005105882309F427C310920A041092090413
:1016900010920604109205048091090490910A04A6
:1016A000909308048093070480E8809388008FE675
:1016B00099E090932705809326058091FF039091F0
:1016C000000440910F0450911004480F591FCA01A3
:1016D000880F991F840F951F820F931F40910D044F
:1016E00050910E04840F951F9595879530930004B3
:1016F0002093FF036090FD037090FE03209103048C
:1017000030910404260D371D3901660C771C620EDA
:10171000731E680E791E2091010430910204620E3E
:10172000731E9093FE038093FD034091110450912A
:101730001204809151058111B9C28091FB039091EF
:10174000FC032091F9033091FA03BC01621B730B77
:101750009B016091F7037091F803F901E61BF70B09
:10176000BF0170930A0460930904C091F6036C2FC3
:10177000CF5FC093F603611107C078948091FB039B
:101780009091FC03C091F6033093F8032093F70384
:101790009093FA038093F9038091390502C055951F
:1017A00047958A95E2F7C090DE03D090DF03A090C2
:1017B000F203B090F303E090E203F090E303E091D2
:1017C000EE03F091EF03B7016E1B7F0B0091E60370
:1017D0001091E703A091EA03B091EB0398012A1B53
:1017E0003B0B8090DA039090DB03841A950AC601C4
:1017F0008A199B09880F991F880F991F880E991EB7
:1018000097FE03C08FE3880E911C082C892C000CD6
:10181000881C9908000C881C991CCB01820F931F0F
:1018200097FD0796959587959595879595958795B5
:10183000880E991ECB01880F991F880F991F860F5C
:10184000971F821B930B97FF02C081589F4F880FF1
:10185000892F881F990B880D991D37FF02C02F5FB4
:101860003F4F35952795280F391F8091DC039091C4
:10187000DD039093DB038093DA03D092DD03C09203
:10188000DC038091E0039091E1039093DF03809368
:10189000DE03F092E103E092E0038091E403909193
:1018A000E5039093E3038093E2031093E503009331
:1018B000E4038091E8039091E9039093E703809318
:1018C000E603B093E903A093E8038091EC039091C1
:1018D000ED039093EB038093EA03F093ED03E09321
:1018E000EC038091F0039091F1039093EF038093C8
:1018F000EE03B092F103A092F0038091F403909173
:10190000F5039093F3038093F2035093F503409310
:10191000F4038091390502C0759467948A95E2F7C3
:1019200070922B0560922A055093D9034093D803F7
:10193000A091CA03B091CB038091CC039091CD03C9
:101940009093CB038093CA038091CE039091CF03F1
:101950009093CD038093CC038091D0039091D103D9
:101960009093CF038093CE038091D2039091D303C1
:101970009093D1038093D0038091D4039091D503A9
:101980009093D3038093D2038091D6039091D70391
:101990009093D5038093D4037092D7036092D603BB
:1019A000B195A195B109A21BB30B8091C9031FEF9B
:1019B000180F1093C903C090C503D090C603E090E0
:1019C000C703F090C8038111ADC0C0924005D0920A
:1019D0004105E0924205F09243051092C503109232
:1019E000C6031092C7031092C8031FEF8091EC0149
:1019F000843009F4AFC08091EC01833009F49DC1BB
:101A000080912E01882309F48EC18091EC018430ED
:101A100009F433C48091040190910501811524E0FB
:101A2000920774F09C01232F330F330B25952595D6
:101A3000AD01429FD001439FB00D529FB00D1124C4
:101A40002B2F259525953B2F330F330B37FDFEC3E9
:101A500041E050E0BA01621B730B4FEF5FE7481B98
:101A6000590B6417750734F4860F971F909305017F
:101A700080930401181619060CF0D7C32091C201F7
:101A800080E190E0821B910927FD9395AD0102C092
:101A9000559547958A95E2F78091540581113EC28C
:101AA000809153058111EEC1C090B503D090B6036B
:101AB000E090B703F090B8031F7309F0CBC1C09258
:101AC0003305D0923405E0923505F0923605109238
:101AD000B5031092B6031092B7031092B8034115E4
:101AE0006EEF560714F440E05EEF411572E05707C1
:101AF00014F04FEF51E05093FC034093FB03C150AF
:101B0000C093F603CF911F910F91FF90EF90DF905C
:101B1000CF90BF90AF909F908F907F906F905F908D
:101B20004F900895AD01B7FD93C2052E000C660BD2
:101B3000770B4C0D5D1D6E1D7F1D4093C5035093AB
:101B4000C6036093C7037093C8038091EC0184308F
:101B500009F051CF80912A0590912B0520912A05FB
:101B600030912B05181619061CF031952195310975
:101B70008091D8039091D90397FD6CC38091D803CD
:101B80009091D903821793070CF467C28091D80310
:101B90009091D90397FD78C48091D8039091D9038F
:101BA00020912A0530912B05121613060CF064C4FF
:101BB00020912A0530912B0537FF02C02D5F3F4F42
:101BC0003595279535952795820F931F092E000C83
:101BD000AA0BBB0B0091C1031091C2032091C30358
:101BE0003091C403AC01BD01401B510B620B730B60
:101BF00077FF04C041505E4F6F4F7F4FE9E075950E
:101C0000679557954795EA95D1F7400F511F621F89
:101C1000731F4093C1035093C2036093C303709337
:101C2000C403841B950BA60BB70B880F991FAA1F23
:101C3000BB1F880F991FAA1FBB1F880F991FAA1FC0
:101C4000BB1F880F991FAA1FBB1F4091BF03509154
:101C5000C0039C01241B350B37FF02C02D5F3F4F93
:101C60003595279535952795240F351F3093C0035B
:101C70002093BF03AC01421B530B2091C20180E1B2
:101C800090E0821B910927FD939502C055954795D9
:101C90008A95E2F74115EEEF5E0714F440E05EEF3F
:101CA0004115F2E05F070CF426CF23CF1092FC031E
:101CB0001092FB031092FA031092F9031092F803AA
:101CC0001092F7031092510570E060E030E020E0E0
:101CD00090E080E046CD4091070450910804809147
:101CE000050490910604840F951F90930604809339
:101CF00005046091090470910A04460F571F509320
:101D00000804409307049595879595958795959533
:101D1000879595958795959587958F3791050CF4BF
:101D2000F6C38FEFC2CC8091C2018E300CF0ACC1F3
:101D30002091C2018DE090E0A5CE20912A0530913E
:101D40002B05E091D803F091D903BF01F7FD74C2D0
:101D5000A90137FD76C2461757070CF09FC105ED64
:101D60000403C001059F900D11240E949035605C12
:101D70007F4F37FF06C080E890E09C01261B370BA1
:101D8000B901F7FF03C07195619571098091BD0399
:101D90009091BE03AB01481B590BCA01092E000CE0
:101DA000AA0BBB0B7093BE036093BD0381389105F2
:101DB000A105B1050CF456C29150A109B109880FD3
:101DC000991FAA1FBB1F880F991FAA1FBB1F880F2F
:101DD000991FAA1FBB1F880F991FAA1FBB1F813005
:101DE00068EF960714F481E098EFC090B903D090A3
:101DF000BA03E090BB03F090BC03811578E097072D
:101E000014F08FEF97E0092E000CAA0BBB0B8C1976
:101E10009D09AE09BF09B7FF03C00796A11DB11DFB
:101E200023E0B595A795979587952A95D1F78C0DC1
:101E30009D1DAE1DBF1D8093B9039093BA03A0935F
:101E4000BB03B093BC03DC0180912E01882309F40D
:101E50006ACFDBCDCA0157FF04C088279927841BAE
:101E6000950B092E000CAA0BBB0B8C0D9D1DAE1DF6
:101E7000BF1D8093B5039093B603A093B703B093AF
:101E8000B8032DCE80915305A090AF03B090B0035E
:101E9000E090AB03F090AC03C090A503D090A603F4
:101EA000873008F009C12091B3033091B403C90110
:101EB000959587959595879595958795959587950A
:101EC00095958795FA01E81BF90BCF01820F931FB7
:101ED0009093B4038093B3039595879595958795D3
:101EE0009595879595958795959587954A01881A33
:101EF000990AE09153056091B1037091B203E73004
:101F000008F05DC2F0E0E957F04F0C94E535A913F5
:101F100049142414FC13D813AF13AD118091540548
:101F2000882309F4BDCD8091540504E0402E512C46
:101F3000612C712C823029F082E0482E512C612CCA
:101F4000712C80915405833029F4B6E04B2E512C2E
:101F5000612C712C80915405843029F4A8E04A2E1C
:101F6000512C612C712C80915405853028F0FAE0B9
:101F70004F2E512C612C712C6A01550FEE08FF0871
:101F800080909F039090A003A090A103B090A20323
:101F9000C701B601681979098A099B09A301920151
:101FA0000E94C635820E931EA41EB51E80929F030A
:101FB0009092A003A092A103B092A2038091540535
:101FC0002401990C66087708813009F481C4809156
:101FD0005405823009F426C580915405833009F4F4
:101FE000A4C280915405843009F4B9C5D701C60153
:101FF000880F991FAA1FBB1FC80ED91EEA1EFB1E01
:10200000B301A201440F551F661F771F440F551FD0
:10201000661F771F440F551F661F771F440F551FFC
:10202000661F771F440D551D661D771D4C0D5D1DE8
:102030006E1D7F1DCB01BA01660F771F881F991F88
:1020400028E230E040E050E00E94C635A90128CDEA
:10205000442755274A1B5B0B68CD80912A05909138
:102060002B05181619060CF025C280912A059091AF
:102070002B052091D8033091D90337FD0DC2209153
:10208000D8033091D90398CD8091C2018D50AD0114
:1020900002C0440F551F8A95E2F7FECC2115310589
:1020A00009F410C2ABE2A69FC001A79F900D1124B6
:1020B000BA010E9490355DCE8091C101811186C028
:1020C00080915305883009F45BC208F4D0C489308C
:1020D00009F404C68A3009F03FC0C501880F991F72
:1020E000880F991FF501E81BF90BCF01FA01EE0FDC
:1020F000FF1FE80FF91F8091AD039091AE03880F89
:10210000991FE80FF91F2091A9033091AA03A2ECAF
:10211000BFEF0E94EB352B013C012FE630E0D701E9
:102120000E940236460E571E681E791E77FE05C0B5
:102130002FE3420E511C611C711CC301B20126E049
:1021400095958795779567952A95D1F7E60FF71FAF
:10215000F093B203E093B10380915305883009F402
:1021600060C508F4BAC4893009F48BC58A3071F5AA
:102170002DE630E0D6010E94023627010F2C000C1C
:1021800066087708460E571E681E791E2091A30325
:102190003091A403A2ECBFEF0E94EB35460E571E10
:1021A000681E791E77FE05C08FE3480E511C611C26
:1021B000711CC301B201E6E0959587957795679507
:1021C000EA95D1F77093A8036093A7038091C101AA
:1021D000813009F49DC3A091A703B091A803E091B9
:1021E000B103F091B203D092A403C092A303B093C1
:1021F000A603A093A503F092AA03E092A903F0938B
:10220000AC03E093AB03B092AE03A092AD03509346
:10221000B0034093AF03B7FD1796AD0155954795B1
:1022200055954795559547953FCC81E090E0909323
:1022300005018093040122CC662777276E1B7F0B54
:1022400087CD44275527421B530B85CD31952195CA
:102250003109FECB8091D8039091D9039195819556
:10226000910990CC80385FEF9507A507B5070CF072
:10227000A6CD9F5FAF4FBF4FA2CD409106015091B9
:1022800007019A01403851050CF431C13595279565
:102290003595279535952795359527953595279526
:1022A0000E94EB356B017C01F594E794D794C794B9
:1022B000F594E794D794C794C11480E8D806E10454
:1022C000F1040CF002C1C114E0E8DE06EFEFEE0607
:1022D000FE060CF424C1D6019601D7FE04C02227C5
:1022E00033272C193D09232F330F330B27303105AA
:1022F0000CF0EDC02530310514F0109203018091EF
:1023000001019091020101979093020180930101D4
:10231000892B09F0B3CB809103018823A1F04115EB
:10232000F8E75F070CF006C5CA0195958795959566
:1023300087959595879595958795480F591F509343
:1023400007014093060180E991E090930201809398
:10235000010181E08093030191CBB501660F771FE6
:10236000680D791D8091AD039091AE03680F791FC0
:1023700077FF02C06F5F7F4F759567958091A903C6
:102380009091AA03880F991F880F991F0BEFA7013F
:1023900004039001059F300D1124820F931F97FDB8
:1023A0000F9695958795959587959595879595958C
:1023B0008795681B790B7093B2036093B103E0912A
:1023C00053054091A7035091A803E73008F03BC0A4
:1023D000F0E0E351FE4E0C94E5357D1359133613AE
:1023E0000E13EE12F4118313D701AA0FBB1FA60F11
:1023F000B71F4091A9035091AA03A40FB51FB7FDC1
:102400001396B595A795B595A7958091A30390913F
:10241000A403FC01EE0FFF1FEE0FFF1FE80FF91FD3
:10242000EC19FD09F7FD3F96F595E795F595E795CC
:10243000F595E795F595E795AD014E1B5F0B50932C
:10244000A8034093A703D092A403C092A303509380
:10245000A6034093A503F092AA03E092A903709308
:10246000AC036093AB03B092AE03A092AD03909225
:10247000B0038092AF0318CB20912A0530912B0531
:1024800031952195310998CB8091D8039091D9034A
:1024900091958195910984CB2091D8033091D903EE
:1024A00037FD40C035952795359527953195219570
:1024B00031098ACB80912A0590912B0591958195C0
:1024C0009109D7CD70E060E05CCCAFEFBFE7CA0107
:1024D00095958795959587959595879595958795E4
:1024E000481B590B5093070140930601C7CA359505
:1024F0002795359527950E94EB356B017C01A5E06A
:10250000F594E794D794C794AA95D1F7D5CE80389F
:102510004FEF940714F480E89FEF8058C6C8A0E0FE
:10252000B0E8EDCE2D5F3F4FBDCFB701A601440F00
:10253000551F661F771F440F551F661F771F4C0DD1
:102540005D1D6E1D7F1D73016201CC0CDD1CEE1C38
:10255000FF1CCC0CDD1CEE1CFF1CCC0CDD1CEE1C8F
:10256000FF1CC418D508E608F708CB01BA016C0DAA
:102570007D1D8E1D9F1D2CE030E040E050E064CDBD
:10258000C501880F991FFA01E81BF90B8091AD0373
:102590009091AE038E0F9F1FFC01EE0FFF1FEE0FF9
:1025A000FF1FE80FF91F2091A9033091AA03A6ECA1
:1025B000BFEF0E94EB352B013C0129E630E0D7014B
:1025C0000E940236460E571E681E791E77FEB5CD54
:1025D0006FE3460E511C611C711CAFCDD701AA0FD1
:1025E000BB1FA60FB71F4091A9035091AA03A40FC8
:1025F000B51FB7FD1396B595A795B595A795E0912D
:10260000A303F091A403EE0FFF1FEC0DFD1DF7FDDA
:102610003396F595E795F595E7950ECFD701AA0F77
:10262000BB1FA60FB71F4091A9035091AA03A40F87
:10263000B51FB7FD1196B595A7958091A30390910D
:10264000A403FC01EE0FFF1FEE0FFF1FEE0FFF1F95
:10265000E80FF91FC601880F991F8C0D9D1D880F6B
:10266000991F880F991FE80FF91FDCCED701AA0F19
:10267000BB1FA60FB71F4091A9035091AA03A40F37
:10268000B51FB7FD1196B595A7958091A3039091BD
:10269000A403FC01EE0FFF1FEE0FFF1FEE0FFF1F45
:1026A000E80FF91F2FE02C9DC0012D9D900D1124E6
:1026B000DACFD701AA0FBB1FA60FB71F4091A903FE
:1026C0005091AA03A40FB51FB7FD1196B595A79514
:1026D0008091A3039091A403FC01EE0FFF1FEE0F66
:1026E000FF1FEE0FFF1FE80FF91FC601829592959D
:1026F000907F9827807F9827B6CF7093A803609328
:10270000A703AB01A0CED701AA0FBB1FA60FB71F0F
:102710004091A9035091AA03A40FB51FB7FD1396CA
:10272000B595A795B595A7958091A3039091A4031E
:10273000FC01EE0FFF1FEE0FFF1FE80FF91FC60190
:10274000880F991F880F991F9601281B390BC90103
:102750008ACF9092B2038092B103B40130CEB5011A
:10276000660F771F680D791D8091AD039091AE03C0
:10277000680F791F77FF02C06F5F7F4F7595679570
:102780008091A9039091AA039C01220F331F220F6D
:10279000331F821B930B8E0D9F1D97FD07969595FA
:1027A00087959595879595958795680F791F03CEA1
:1027B000B501660F771F680D791D8091AD0390916B
:1027C000AE03680F791F77FF02C06F5F7F4F75956B
:1027D00067958091A9039091AA03880F991F880F8C
:1027E000991F8E0D9F1D97FD079695958795959539
:1027F000879595958795DDCDB501660F771F680D97
:10280000791D8091AD039091AE03680F791F77FF1A
:1028100002C06F5F7F4F759567952091A903309136
:10282000AA032E0D3F1D47EF4203C001439F900DA9
:10283000112497FD0F969595879595958795959574
:10284000879595958795B1CFB501660F771F680D70
:10285000791D8091AD039091AE03680F791F77FFCA
:1028600002C06F5F7F4F759567952091A9033091E6
:10287000AA03C901880F991F880F991F880F991FF4
:10288000820F931F4DE04E9D90014F9D300D1124FE
:1028900084CDB501660F771F680D791D8091AD035A
:1028A0009091AE03680F791F77FF02C06F5F7F4F73
:1028B000759567952091A9033091AA03C701880FE8
:1028C000991F820F931F97FD01969595879571CD5E
:1028D000B701A601440F551F661F771F4C0D5D1DE4
:1028E0006E1D7F1D440D551D661D771D77FF04C0AD
:1028F0004D5F5F4F6F4F7F4F9A01AB0155954795E5
:10290000379527955595479537952795A901C8C8B7
:1029100080915305883009F47DC208F464C1893080
:1029200009F498C28A3009F090C22091A90330912D
:10293000AA03A3ECBFEF0E94EB352B013C012EE66E
:1029400030E0D7010E940236460E571E681E791EDF
:1029500077FE05C03FE3430E511C611C711CC3018F
:10296000B20136E095958795779567953A95D1F7B9
:10297000F501E60FF71FF093B203E093B1038091E6
:102980005305883009F416C208F4F8C0893009F4F8
:10299000DDC18A3009F0D5C1C701880F991FDF0159
:1029A000A81BB90B8090A9039090AA038A0E9B1EC6
:1029B00097FE03C02FE1820E911C95948794959405
:1029C000879495948794959487949594879420916F
:1029D000A3033091A403A2ECBFEF0E94EB352B01BF
:1029E0003C0120E730E0D6010E940236460E571E19
:1029F000681E791E77FE05C03FE3430E511C611C23
:102A0000711CC301B20126E095958795779567956E
:102A10002A95D1F7D401A60FB71FB093A803A093AE
:102A2000A703E1CBC701B601660F771F881F991F67
:102A3000660F771F881F991F660F771F881F991FC2
:102A40006C197D098E099F0973016201CC0CDD1C94
:102A5000EE1CFF1CCC0CDD1CEE1CFF1C4C0C5D1C8A
:102A60006E1C7F1C640D751D861D971D84CD8730DF
:102A700009F072CBF501EE0FFF1FE40FF51F8091F7
:102A8000AD039091AE03E80FF91FF7FD3196F59570
:102A9000E7952091A9033091AA03A9EEBFEF0E9408
:102AA000EB352B013C0129E230E0D7010E940236D0
:102AB000460E571E681E791E77FE05C03FE1430E85
:102AC000511C611C711CC301B20125E095958795CD
:102AD000779567952A95D1F739CB873009F076CB72
:102AE000E091B103F091B203C701880F991FE81B71
:102AF000F90B8091A9039091AA03E80FF91FF7FD44
:102B00003396F595E795F595E7952091A3033091D8
:102B1000A403ACECBFEF0E94EB352B013C0129E68E
:102B200030E0D6010E940236460E571E681E791EFE
:102B300077FE05C03FE3430E511C611C711CC301AD
:102B4000B201A6E09595879577956795AA95D1F7F7
:102B5000E60FF71FF093A803E093A70337CBB30169
:102B6000A201440F551F661F771F440D551D661D9A
:102B7000771D4C0D5D1D6E1D7F1DB8CE873009F091
:102B8000E0C02091A3033091A403ACECBFEF0E94FE
:102B9000EB352B013C012FE530E0D6010E940236D7
:102BA000460E571E681E791E77FE05C06FE3460E5F
:102BB000511C611C711C86E075946794579447946E
:102BC0008A95D1F7C701880F991F9F01281B390BE0
:102BD000C9012091A9033091AA03820F931FDC0140
:102BE000A40DB51D1ACF873009F02FC12091A9037C
:102BF0003091AA03A7ECBFEF0E94EB352B013C01FB
:102C000022E730E0D7010E940236460E571E681EAA
:102C1000791E77FEA4CEEFE34E0E511C611C711C91
:102C20009ECE8091B1039091B2032701440C551CB4
:102C3000480E591E8091A9039091AA03480E591E6F
:102C4000052C000C6608770821E630E0D6010E94CA
:102C50000236460E571E681E791E2091A30330913E
:102C6000A403A7ECBFEF0E94EB35460E571E681E6B
:102C7000791E77FE9ECA6FE3460E511C611C711CC3
:102C800098CA4090B1035090B2034E0C5F1C8091E3
:102C9000A9039091AA03480E591E052C000C660842
:102CA000770828E630E0D6010E940236460E571E0D
:102CB000681E791E2091A3033091A403A4ECBFEFFA
:102CC0000E94EB35460E571E681E791E77FE71CAAC
:102CD0007FE3470E511C611C711C6BCAC501880F34
:102CE000991FFA01E81BF90B8091AD039091AE0397
:102CF0008E0F9F1FFC01EE0FFF1FE80FF91F2091A1
:102D0000A9033091AA03A3ECBFEF0E94EB352B017E
:102D10003C012CE630E0D7010E940236460E571ED9
:102D2000681E791E77FE09CA7FE3470E511C611C9D
:102D3000711C03CA8FEF9FE79093070180930601F0
:102D400002CBA091A703B091A8034DCAC701880F79
:102D5000991FDF01A81BB90B8090A9039090AA03CB
:102D60008A0E9B1E97FE03C07FE0870E911C9594F0
:102D700087949594879495948794959487942091BB
:102D8000A3033091A403A2ECBFEF0E94EB352B010B
:102D90003C0121E730E0D6010E940236460E571E64
:102DA000681E791E77FE2DCE8FE3480E511C611CE4
:102DB000711C27CEC701880F991FDF01A81BB90B13
:102DC0008090A9039090AA038A0E9B1E97FE03C0D1
:102DD00033E0830E911C9594879495948794209169
:102DE000A3033091A403A5ECBFEF0E94EB352B01A8
:102DF0003C012AE630E0D6010E940236460E571EFC
:102E0000681E791E77FEFDCD6FE3460E511C611CD6
:102E1000711CF7CD2091A9033091AA03A4ECBFEF58
:102E20000E94EB352B013C0121E730E0D7010E94E5
:102E30000236460E571E681E791E77FE90CDFFE3C0
:102E40004F0E511C611C711C8ACDE091B103F091B1
:102E5000B20395CD2091A9033091AA03A2ECBFEF54
:102E60000E94EB352B013C012EE630E0D7010E9499
:102E70000236460E571E681E791E77FE70CD2FE370
:102E8000420E511C611C711C6ACDE0919103E7FD5B
:102E90001DC0F0E0ED5AFD4FE491EA32B9F0E09345
:102EA000E80191E090936905882391F0E9EDF1E064
:102EB00088EE91E0218121938E179F07D9F780E258
:102EC0008093E80181E08093910302C08111FACFE1
:102ED0000895CF92DF92EF92FF926B017C010E94E6
:102EE000D703C60ED71EE81EF91E0E94D7036C1525
:102EF0007D058E059F05C0F4A89581E10E94EC0236
:102F0000892B29F48CE00E94EC02892B39F481E1B1
:102F10000E94EC02892B71F0A895F9CF8DE00E94F8
:102F2000EC02892B11F7F3CF80E0FF90EF90DF9058
:102F3000CF90089581E0F9CF80918A0020912405F7
:102F40008217A0F48FE190E04BEE50E00197FC0176
:102F5000E553FF4FE491F0E0EB5DFB4F30813093A0
:102F60008A00FA013197F1F7009781F720938A00E0
:102F7000E091C10184E0E89FF0011124E050FE4F90
:102F80002081318142815381AEE1B3E00E94093654
:102F900020EC32E140E050E00E94A4358091000135
:102FA000309189032802C0011124EFE7F0E0BF014E
:102FB0000E949035360F30938903809189033091B8
:102FC00000012802C0011124BF010E949035361B68
:102FD00030930001809189034091C201082E000CBA
:102FE000990B20E130E0241B310947FD339502C0E5
:102FF000959587952A95E2F78058809388000895E3
:103000000F931F93CF93DF93E7E6F3E025E833E0D8
:1030100042815381419351932E173F07C9F79C0179
:10302000220F331F4091650350916603240F351F13
:10303000440F551F841B950BE3E0F0E0BF010E9495
:10304000903570936603609365038091630390915C
:103050006403880F991F820F931FBF010E94903550
:103060007093640360936303261B370B30938603CE
:10307000209385038091750390917603FC01EE0FF8
:10308000FF1F409173035091740360917703709117
:103090007803461B570B20916B0330916C036091B2
:1030A0007F0370918003261B370B220F331F220FE3
:1030B000331F6091670370916803A0918303B091FF
:1030C00084036A1B7B0B260F371F220F331F60916F
:1030D0006F0370917003A0917B03B0917C036A1B16
:1030E0007B0BC5E1C69FD001C79FB00D11242A0FED
:1030F0003B1FBA0114E0660F771F1A95E1F7260F00
:10310000371F37FF02C0215C3F4F66E0359527959A
:103110006A95E1F7240F351FE230F10544F4CF0141
:10312000F7FD019695958795919581959109B9013E
:103130002230310594F075956795681779073CF151
:10314000E230F1050CF4DEC0CF01B3E09595879530
:10315000BA95E1F7860F971F22C037FF02C06F5F55
:103160007F4F759567957195619571096817790716
:103170003CF7A90137FF02C0495F5F4FC3E0559597
:103180004795CA95E1F751954195510906C0A901A6
:10319000D3E055954795DA95E1F7840F951F409157
:1031A0007B014817190608F0BEC040916B0541111C
:1031B000B8C04FEF40936B0540917A0102C0880F71
:1031C000991F4A95E2F78F3F910509F020F440914D
:1031D0007A01483011F48FEF90E040916B05442361
:1031E00009F4AAC08B5D9B4FDC018C9180938A030C
:1031F000E90137FF04C0CC27DD27C21BD30B8F01A9
:10320000F7FF04C0002711270E1B1F0B0C171D070B
:103210000CF094C045EE4003C001419F900D112475
:10322000BE010E9490356A597F4F609FC001619F27
:10323000900D709F900D1124BE010E94903586E97B
:1032400090E0AC01461B570BBA01F7FF06C08CE2B9
:1032500091E0DC01A61BB70BBD0137FF03C07195E0
:103260006195710980916103909162039B01281B14
:10327000390B709362036093610337FF02C0285AD1
:103280003D4F80915305882309F474C08091530504
:10329000833009F472C08CE291E08217930714F531
:1032A00080915305882309F46BC0809153058330C6
:1032B00009F469C08CE291E0281B390B621B730B87
:1032C00070936203609361038091530528E532E0B7
:1032D000882341F0809153052CE231E0833011F4D2
:1032E00026E930E08091EC01813009F04FC0C9013E
:1032F00023E0880F991F2A95E1F7DF91CF911F9165
:103300000F910895AF01F7FF02C0495F5F4FA3E03F
:1033100055954795AA95E1F788279927841B950B22
:1033200019CF4EEF47CF40916B05442309F444CFAA
:1033300040916B0541503ECF80E058CF70E060E097
:10334000309709F48ACF45EEBE014603C001479F7E
:10335000900D1124B8010E9490356A597F4F6C9FDF
:10336000C0016D9F900D7C9F900D1124B8010E94AB
:1033700090356BCF88E592E090CF86E990E08DCFD5
:1033800088E592E099CF86E990E096CF48EF420336
:10339000C001439F900D1124B0CFCF93DF93C09114
:1033A0007800D091790080917A00806480937A00CF
:1033B0000E94230480918A0380938A008091780080
:1033C00090917900C80FD91F80917A008064809312
:1033D0007A0080918703909188030E9400182091C1
:1033E000780030917900C20FD31F20917A002064B9
:1033F00020937A000E944A0220917800309179004F
:1034000090917A00906490937A00CE01820F931F7E
:1034100097FD03969595879595958795805E914044
:10342000909388038093870380916B05813031F4FA
:1034300010928A006FEF83E00E94900480916B05E8
:103440008F3F31F46BEF83E0DF91CF910C949004C8
:10345000DF91CF910895F8948BB1807F8061962F92
:1034600092959F70892B8BB98BB1807F80616F7033
:10347000682B3C9800005C986BB93C9A3C98000023
:103480005C983C9A0E947A078BEE90E00197F1F7E6
:1034900081E090E00895682F84E995E00C942B1A60
:1034A0008F929F92AF92BF92CF92DF92EF92FF9254
:1034B000CF93C0912C0580919E03C81709F47BC05F
:1034C00080916A0581110DC00E94A0078FEC0E94B7
:1034D000950782E5C11101C080E20E944B1A0E944B
:1034E000C40780908D0390908E03A0908F03B090BE
:1034F0009003CC2309F495C00E94D70360939A03EC
:1035000070939B0380939C0390939D030E94D70329
:10351000C0909603D0909703E0909803F0909903A1
:103520009B01AC012C193D094E095F0969017A0123
:10353000C0929203D0929303E0929403F092950389
:1035400080919103823038F1D501C401880F991F11
:10355000AA1FBB1F8C159D05AE05BF05E0F481E0D9
:103560000E94451760EB74E080E090E0A5019401B3
:103570000E94A435CA01B901A2E0660F771F881F17
:10358000991FAA95D1F723E030E040E050E00E9477
:10359000A43520938001A5E0B0E0A50194010E942C
:1035A0000936C616D706E806F90628F081E08093AA
:1035B00091030E9445170E94D703C0909603D090B4
:1035C0009703E0909803F09099039B01AC012C19AC
:1035D0003D094E095F0969017A0120918D033091FF
:1035E0008E0340918F0350919003A6E0B0E00E94BB
:1035F00009366C157D058E059F0538F48091910381
:10360000823018F081E00E944517C0939E03CF914D
:10361000FF90EF90DF90CF90BF90AF909F908F90F2
:1036200008950E94D7036093960370939703809345
:103630009803909399030E94D703C0909A03D09067
:103640009B03E0909C03F0909D039B01AC012C191F
:103650003D094E095F0969017A01D501C401880F4E
:10366000991FAA1FBB1FC816D906EA06FB0620F041
:1036700089288A288B28A1F4BC01CD016C0D7D1D01
:103680008E1D9F1D23E030E040E050E00E94A435F5
:1036900020938D0330938E0340938F0350939003B8
:1036A00020918D0330918E0340918F0350919003B0
:1036B000A5E0B0E00E9409366C157D058E059F05DA
:1036C00080F4C701B60123E030E040E050E00E9402
:1036D000A43520938D0330938E0340938F03509332
:1036E000900340918D0350918E0360918F037091F0
:1036F0009003DB01CA01B695A795979587958C1520
:103700009D05AE05BF0508F056CF8091910390E06E
:10371000880F991F440F551F661F771F21E04C1516
:103720005D056E057F0508F020E0822B80939103F4
:1037300080E03FCFCF93C82F809170008D7F809322
:1037400070008BE490E00197F1F7F894C0936B055B
:10375000CC2309F483C080910601909107019093D6
:103760002104809320048091EC01823009F46DC023
:1037700008F464C0833009F46EC0843009F468C072
:103780007894CC2309F479C080914E0580937C0015
:10379000109228058091EB01882361F08091EC0163
:1037A000823041F481E0C11101C080E080932C059A
:1037B0000E94501ACC2309F46EC060E088E00E9499
:1037C00015038FEC0E94950784E50E944B1A8091A7
:1037D000EC01823009F055C080914805909149056F
:1037E000A0914A05B0914B059195819591090E9450
:1037F0004A020E9423046BEF83E00E94900480E859
:103800008093880080911F04811109C08091EC0190
:10381000823029F0809180008F77809380008091A2
:10382000800080628093800080E48093B300809168
:103830007000826080937000CF9108958DEC99E1C3
:1038400090932705809326059BCF8CE997E1F8CFCD
:103850008FEE97E0F5CF85E598E0F2CF8091EC010F
:10386000823041F0809120049091210490930701CF
:103870008093060182E19BE0E3CF81E080935105D4
:1038800087CF8091550590915605892B09F4B3CFC8
:1038900090E080E0ACCF80918A00882399F0EBEC37
:1038A000F0E02BEE30E0A491B0E0AB5DBB4F8C912B
:1038B00080938A00C9010197F1F7319680E0EA3ED2
:1038C000F80789F78091800080688093800080915C
:1038D00080008F7D8093800060E08AE00E94150365
:1038E00010928A006CEF83E00E94900480914F0553
:1038F00061E0823009F460E088E00E941503809165
:103900005505909156050E944A020E9423048FECAF
:103910000E94950780917005811105C082E50E9483
:103920004B1A84E082CF86E5FACF0F931F93CF9393
:10393000DF938C01D0E0C0E0F801EC0FFD1F649133
:10394000662341F084E995E00E942B1A892B11F03F
:103950002196F2CFCE01DF91CF911F910F91089563
:1039600082EC90E00C94951C0F931F93CF93C62F7D
:103970008A018130A1F580E80E9495078C2F8295FD
:103980008F70CF708A3021F481E30E944B1A80E05F
:10399000805D0E944B1A8EE20E944B1ACA3020F0C2
:1039A000CA5081E30E944B1A80E38C0F0E944B1A8D
:1039B00080E20E944B1AC8010E94951C0E94B01C14
:1039C0000E94B01C80EC0E94950780916A058230AD
:1039D00098F08EE3CF911F910F910C944B1A80ECCD
:1039E0000E949507C8010E94951C8FEE90E0CF9130
:1039F0001F910F910C94951CCF911F910F910895D9
:103A000080E80E9495078AEE90E00E94951C81E074
:103A10000E944B1A0E94B01C0C94B01C8DE00E94B6
:103A2000EC02892B51F480915A0591E0811192E0CA
:103A300080916705892B809367058CE00E94EC02DA
:103A4000892B51F480915A0592E0811191E0809187
:103A50006705892B809367050895089590E080E0BD
:103A600008950F931F93CF93DF9390E080E00E941F
:103A70005204D0E0C0E001E010E0C8010C2E02C00A
:103A8000880F991F0A94E2F78095909581600E94B3
:103A900052046EE170E080E090E00E94A40390E0A8
:103AA00080E00E9452042196C031D10531F7DF91A8
:103AB000CF911F910F9108958F929F92AF92BF92D5
:103AC0000F931F93CF93DF93CDB7DEB7A1970FB6B8
:103AD000F894DEBF0FBECDBF19A2423008F44AE011
:103AE0008E010F5D1F4F842E912CB12CA12CA501AE
:103AF00094010E94A435E62FB901CA01EA3044F5C9
:103B0000E05DD801EE938D01232B242B252B79F733
:103B100090E080E0109769F0FD0101900020E9F746
:103B20003197AF014A1B5B0BBD0184E995E00E9410
:103B3000E303A1960FB6F894DEBF0FBECDBFDF91B1
:103B4000CF911F910F91BF90AF909F908F9008954C
:103B5000E95CD7CFCF92DF92EF92FF92CF93DF93C2
:103B600097FF19C06B017C018DE20E944B1AEC019A
:103B700066277727CB016C197D098E099F094AE0DA
:103B80000E945C1D8C0F9D1FDF91CF91FF90EF90E5
:103B9000DF90CF9008954AE0DF91CF91FF90EF90B2
:103BA000DF90CF900C945C1D009769F0FC010190B0
:103BB0000020E9F73197AF01481B590BBC0184E99C
:103BC00095E00C94E30390E080E00895CF93DF93B9
:103BD000282FCB016091230470912404C42FD0E0DE
:103BE000233079F0243089F040912304509124044B
:103BF000C40FD51FD0932404C0932304DF91CF9129
:103C00000895AE010E949B32EFCFAE010E94AB320D
:103C1000EBCF4F925F926F927F928F929F92AF9273
:103C2000BF92CF92DF92EF92FF920F931F93CF93A9
:103C3000DF93CDB7DEB7FB01823008F063C090811F
:103C400040907A05042C000C550866087708490E48
:103C5000511C611C711C4C145D046E047F046CF5D6
:103C6000C0826901F42E5F01E82E10927A050E944D
:103C7000A007A6016F2D8E2D0E94B41CF501011521
:103C80001105A1F5608170E090E080E04AE00E94BB
:103C90005C1D0E94B01CDF91CF911F910F91FF908E
:103CA000EF90DF90CF90BF90AF909F908F907F90DC
:103CB0006F905F904F900C94B01C9081C0907A05EB
:103CC0000C2C000CDD08EE08FF08C90ED11CE11C0D
:103CD000F11C8C149D04AE04BF0414F48082C1CF87
:103CE000508190917A05950F9083BBCF808190E0B1
:103CF000880F991F080F191FF801808191810E9478
:103D0000D41DC7CF41E0DF91CF911F910F91FF905C
:103D1000EF90DF90CF90BF90AF909F908F907F906B
:103D20006F905F904F900C94E61D0F931F93CF936D
:103D3000DF93EB01823008F056C0088119812A8197
:103D40003B8190917A05492F990F550B660B770BA4
:103D5000400F511F621F731F77FF1DC01882198209
:103D60001A821B82182F10927A050E94A00750E039
:103D700040E060E0812F0E94B41C688179818A81D3
:103D80009B810E94AA1D0E94B01CDF91CF911F91C0
:103D90000F910C94B01C088119812A813B8190916C
:103DA0007A05492F990F550B660B770B400F511F62
:103DB000621F731F14161506160617067CF208817B
:103DC00019812A813B8190917A05492F990F550BD2
:103DD000660B770B400F511F621F731F4883598377
:103DE0006A837B83BFCF44E0DF91CF911F910F9116
:103DF0000C94E61D8F929F92AF92BF92CF92DF926A
:103E0000EF92FF920F931F93CF93DF93C82FD62F7C
:103E100000E511E08DEF8C0F823088F410932404BC
:103E200000932304FF24F394FD1648F46F2D85E0DE
:103E30000E94FA1EF394F8CFDCE2C2E0EBCFDF3F42
:103E400061F4D1E06D2F8C2F0E94FA1EDF5FD23318
:103E5000C9F7C23009F4F9C3AAC0D23308F0EFC3DE
:103E6000ED2FF0E0EA5CF04E0C94E5351723681F67
:103E7000C51FE51FF51F0520152024208820972049
:103E8000A720B720C7201F231F23D7201F231F23AE
:103E90001F23E620432153211F23622172211F2368
:103EA0001F23822192211F231F231F231F231F2330
:103EB00028223F225122C3221F231F231F231F23F7
:103EC0001F231F23D522E422EA22ED22FB2209230D
:103ED000C23008F053C08091C20140917A05082E8B
:103EE000000C990BAA0BBB0B042E000C550B660B98
:103EF000770B840F951FA61FB71F8F3F9F4FAF4FA4
:103F0000BF4FF4F48FEF8093C20110927A050E94A4
:103F1000A00749EC51E061E18C2F0E94B41C809114
:103F2000C20187FD03C08BE20E944B1A6091C2015F
:103F3000062E000C770B880B990B0E94AA1DB6C0A9
:103F40008091C20140917A05082E000C990BAA0BB2
:103F5000BB0B042E000C550B660B770B840F951FC3
:103F6000A61FB71F4197A105B10514F080E1CBCF83
:103F70008091C20190917A05890FC5CF41E062EC32
:103F800071E08C2F0E94E61D12C0E4E08E2E912C71
:103F9000A12CB12CC12CD12C760101E811E024EC2C
:103FA00031E042E16CEE71E08C2F0E94091E8D2FF2
:103FB000DF91CF911F910F91FF90EF90DF90CF9005
:103FC000BF90AF909F908F9008957AE0872E912CAC
:103FD000A12CB12CC12CD12C760101E611E02AEBE9
:103FE00031E043E163E575E0DFCF6AE0862E912C96
:103FF000A12CB12CC12CD12C76010BE411E025EBC6
:1040000031E044E163EC71E0CFCF59E0852E912C93
:10401000A12CB12CC12CD12C760107E311E02BEAA5
:1040200031E045E165ED71E0BFCF812C912C540169
:104030008394C12CD12C760103E311E022EA31E014
:1040400046E162E575E0B0CFC23008F05DC0809116
:1040500055059091560540917A05092E000CAA0B42
:10406000BB0B042E000C550B660B770B840F951FB2
:10407000A61FB71FB7FF1FC0109256051092550517
:1040800010927A050E94A0074EE951E067E18C2F5B
:104090000E94B41CE0915505F0915605EE0FFF1FEC
:1040A000E15DFE4F808191810E94D41D0E94B01C71
:1040B0000E94B01C7CCF809155059091560540918F
:1040C0007A05092E000CAA0BBB0B042E000C550B15
:1040D000660B770B840F951FA61FB71F0297A105CC
:1040E000B1053CF081E090E0909356058093550532
:1040F000C7CF809155059091560520917A05820F82
:10410000911D27FD9A95F0CF42E065E575E039CF26
:10411000812C912C54018394C12CD12C760108E27E
:1041200011E02AE931E048E16EE271E03DCF90E133
:10413000892E912CA12CB12CC12CD12C760110E010
:1041400000E027E931E049E164E575E02DCF87E043
:10415000882E912CA12CB12CC12CD12C760108E1F8
:1041600011E022E931E04AE16FE475E01DCF00E1A2
:10417000802E912CA12CB12CC12CD12C760110E0D9
:1041800000E02DE831E04BE169E375E00DCF14E08C
:10419000812E912CA12CB12CC12CD12C76010EE0BA
:1041A00011E025E831E04CE16AEE71E0FDCE812CB2
:1041B000912C54018394C12CD12C76010FE211E093
:1041C0002AE731E041E26BEE71E0EECEC23008F05A
:1041D00056C08091BF019091C00140917A05092E8F
:1041E000000CAA0BBB0B042E000C550B660B770BB7
:1041F000840F951FA61FB71F181619061A061B064F
:10420000CCF081E090E09093C0018093BF011092C8
:104210007A050E94A0074EE651E065E28C2F0E94CD
:10422000B41C6091BF017091C001072E000C880B77
:10423000990B83CE8091BF019091C00140917A0586
:10424000092E000CAA0BBB0B042E000C550B660BA1
:10425000770B840F951FA61FB71F4A97A105B105BD
:104260001CF089E190E0CFCF8091BF019091C00117
:1042700020917A05820F911D27FD9A95C4CF42E0C7
:104280006FEB71E07ECEA2E08A2E912CA12CB12C96
:10429000C12CD12C760108E011E023E631E046E2A2
:1042A00068ED71E081CE812C912C54018394C12C56
:1042B000D12C76010FE211E028E531E047E26AE512
:1042C00075E072CEE0E18E2E912CA12CB12CC12C88
:1042D000D12C760110E000E02DE431E042E36BE701
:1042E00071E062CE70E1872E912CA12CB12CC12CF3
:1042F000D12C760110E000E024E431E043E36AE7EA
:1043000071E052CE68EC862E912CA12CB12CC12CE0
:10431000D12C760110E000E021E331E041E46CE8CB
:1043200071E042CEC43009F487C030F4C23070F07E
:1043300040E36DE871E025CEC630D1F780912204CC
:10434000803318F48F5F80932204C1E080916A0566
:10435000833011F01092220480916A05823019F4A2
:1043600083E080936A0510912204E12FF0E0E35787
:10437000FE4F2081822F022E000C990B30917A057E
:10438000AC01430F511D37FD5A9540325105C4F021
:1043900030917A05AC01430F511D37FD5A95452BDD
:1043A00079F030917A05830F911D37FD9A958B3501
:1043B00091050CF03FC080917A05280F208302C040
:1043C00080E2808310927A0546E251E062E48C2F0D
:1043D0000E94B41CE12EE694E694E69488E0E89E00
:1043E00070011124F701E357FE4F7F015DE0C52EF8
:1043F000D12CF70181917F01882331F00E944B1A63
:10440000F1E0CF1AD108A9F781E00E944B1A0E946F
:10441000B01C90916A05812F8770805C11E092300A
:1044200008F410E0810F80680E9495078EE00E94DA
:104430009507BDCD8AE5C5CFEDEBF1E082918F7D8B
:1044400009F076CF108221E0ED38F207B9F770CF8E
:1044500080907801882D8150990B4C01092C000C1B
:10446000AA08BB084AE0C42ED12CE12CF12C10E0A4
:1044700000E02AE131E041E867E771E095CDC090C6
:104480007701D12CF12CE12C34EB832E912CA12C33
:10449000B12C10E000E02EE031E042E868E771E086
:1044A00083CDC23008F06BC080918E0590918F054E
:1044B000A0919005B091910540917A05042E000CD1
:1044C000550B660B770B840F951FA61FB71F8038FF
:1044D0009F49A54DB10514F580E89FE9A5EDB0E031
:1044E00080938E0590938F05A0939005B0939105CE
:1044F00010927A050E94A00745E051E063E88C2FF6
:104500000E94B41C60918E0570918F05809190057A
:10451000909191054AE00E945C1DC8CD80918E0566
:1045200090918F05A0919005B091910540917A05E9
:10453000042E000C550B660B770B840F951FA61FDE
:10454000B71F81309F43AB4AB1402CF080E09FE31E
:10455000ABEAB1E0C5CF80918E0590918F05A09117
:104560009005B091910540917A05042E000C550BF1
:10457000660B770B840F951FA61FB71FB1CF44E0C2
:104580006EE875E0FECC9CE8892E912CA12CB12C14
:1045900028E2C22ED12CE12CF12C10E000E02CEF0F
:1045A00030E044E86DEB71E0FFCC812C912C54019C
:1045B0008394C12CD12C76010FE211E022EF30E080
:1045C00041EA69E771E0F0CC68EC71E08C2F0E9461
:1045D000951EEDCC6CEC71E0F9CF812C912C54013F
:1045E000C12CD12C760110E000E030E020E040E06A
:1045F00060ED71E0D9CC812C912C5401C12CD12CCF
:10460000760110E000E030E020E040E061ED71E094
:10461000CBCC812C912C5401C12CD12C760110E0F3
:1046200000E030E020E040E069E275E0BDCC1092AF
:104630006A050E94001D81E08093D401B8CCC2308D
:1046400009F0B5CCDC3209F4B2CC80917A052FEFB9
:104650003FEF181614F421E030E08D2F90E0280F82
:10466000391F2D32310514F420917A0520917A05F5
:10467000121674F02FEF3FEF820F931F8D970CF0FF
:10468000DBCB80917A05181634F08FEFD80FD5CB9D
:1046900021E030E0F1CF81E0F9CF1F920F920FB609
:1046A0000F9211242F933F938F939F93AF93BF93B8
:1046B0008091720590917305A0917405B091750574
:1046C0003091710523E0230F2D3758F50196A11D78
:1046D000B11D209371058093720590937305A0938B
:1046E0007405B09375058091760590917705A0913A
:1046F0007805B09179050196A11DB11D80937605CD
:1047000090937705A0937805B0937905BF91AF9109
:104710009F918F913F912F910F900FBE0F901F90FF
:10472000189526E8230F0296A11DB11DD2CF1F9226
:104730000F920FB60F9211242F933F934F935F93D5
:104740006F937F938F939F93AF93BF93EF93FF9359
:10475000E0912605F09127050995FF91EF91BF9112
:10476000AF919F918F917F916F915F914F913F9109
:104770002F910F900FBE0F901F9018951F920F92C0
:104780000FB60F9211240F931F932F933F934F93C4
:104790005F936F937F938F939F93AF93BF93CF93C9
:1047A000DF93EF93FF93C091250580E1C89FE0015F
:1047B000112486E00E94EC028C0187E00E94EC024A
:1047C000000F111F8C2B802B809325058332B9F0AD
:1047D0008233D9F0FF91EF91DF91CF91BF91AF91EB
:1047E0009F918F917F916F915F914F913F912F9109
:1047F0001F910F910F900FBE0F901F9018958091F1
:104800007A058F5F80937A05E5CF80917A05815094
:10481000F9CFCF93DF93CDB7DEB768970FB6F89493
:10482000DEBF0FBECDBF789484B5826084BD84B5F1
:10483000816084BD85B5826085BD85B5816085BD9B
:1048400080916E00816080936E0010928100809153
:1048500081008260809381008091810081608093DB
:104860008100809180008160809380008091B10000
:1048700084608093B1008091B00081608093B0002B
:1048800080917A00846080937A0080917A008260BF
:1048900080937A0080917A00816080937A00809181
:1048A0007A00806880937A001092C10060E08AE00C
:1048B0000E9415030E94580714BE88E198E20FB6C3
:1048C000F894A895809360000FBE9093600080E4F8
:1048D00080937C001092680010926B0010926C0024
:1048E00010926D0062E087E00E94430362E086E080
:1048F0000E94430380916D00806C80936D008091D5
:10490000680084608093680086E00E94EC026C017D
:1049100087E00E94EC02CC0CDD1CC82AC092250561
:10492000789460E08BE00E94150361E088E00E94CB
:10493000150360E08AE00E94150360E089E00E94B0
:10494000150361E089E00E94430361E08BE00E946F
:10495000430361E088E00E94430361E08AE00E9433
:10496000430360E081E10E94430362E08DE00E9426
:10497000430360E08CE00E94430360E08EE00E940D
:10498000150360E08FE00E94150360E08EE00E9456
:10499000430360E08FE00E94430364E670E080E040
:1049A00090E00E94A4038AB18F618AB93C9A8BE39C
:1049B0009DE00197F1F73C9A5C9883E30E9495078C
:1049C000ABE4CA2EA6E4DA2EC6010197F1F783E321
:1049D0000E949507C6010197F1F783E30E949507AE
:1049E00083E592E00197F1F782E30E94950788E260
:1049F0000E9495078CE00E94950781E00E94950730
:104A000063E070E080E090E00E94A40386E00E94F2
:104A1000950710922B0510922A055E0129E0A20E3F
:104A2000B11C80912A0590912B050897A9F16091FE
:104A30002A0570912B05E3E0660F771FEA95E1F7F1
:104A400068507E4F48E050E0CE0101960E949232BD
:104A500080912A0590912B058F5F38E0839FC001DC
:104A60001124887380640E949507CE0101966C0121
:104A7000F60161916F0184E995E00E942B1ACA1436
:104A8000DB04B1F780912A0590912B050196909354
:104A90002B0580932A05C5CF0E94001D87E80E9440
:104AA000950785EF91E00E94951C8FEE91E00E94A2
:104AB000951C0E94B01C86E080937A01E091C101B0
:104AC00024E0E29FF0011124E050FE4F80819181AB
:104AD000A281B3818093480590934905A0934A052C
:104AE000B0934B0561E383E00E94FA1E86E5809354
:104AF00029056FEF84E00E94FA1E80EC0E94950762
:104B00008EED91E00E94951C64EF71E080E090E0F2
:104B10000E94A403A8951092930510929205DD249B
:104B2000D394D092D4018091C3018093BE0110929E
:104B300070051092540510925605109255058091FB
:104B40005205082F017010E0000F111F000F111FF8
:104B5000F801E853FE4F80819181A281B381809357
:104B6000C4019093C501A093C601B093C701809181
:104B7000520580FBEE24E0F8F12CF701E053FE4FE4
:104B800080818093EC010E94A3070E94001DD092B7
:104B900051051092280582E19BE0909327058093B0
:104BA000260524E63EED45E050E061E082E00E940B
:104BB000830880917C0080934E0580914F0561E0D1
:104BC000813009F460E029E937E741E050E080E016
:104BD0000E94830880917C0080934C0580914F0552
:104BE00061E0813009F460E029E937E741E050E015
:104BF00081E00E94830880917C0080934D05109293
:104C000080001092810080918000826A80938000F1
:104C100080918100896180938100109287008FEFDD
:104C200080938600109289001092880010928B0069
:104C300010928A008091B6008F7D8093B60010920A
:104C4000B0001092B1001092B2008091B00082606A
:104C50008093B0008091B10084608093B100809116
:104C6000700082608093700084E08093B300809134
:104C700080008F7D8093800060E08AE00E941503B1
:104C80001092680580E1809367056091BF01709183
:104C9000C0018CED95E00E949035CB01770FAA0BF7
:104CA000BB0B80935F0590936005A0936105B09363
:104CB00062058DE00E94EC02892BB9F480EC0E9421
:104CC000950781E20E944B1A81E20E944B1A80ED07
:104CD00091E00E94951C0E94B01C6CED75E080E094
:104CE00090E00E94A403A895E4CF8091EC0182306B
:104CF00049F48091D801823029F08CE00E94EC02C6
:104D0000892BE1F242E0442E512C612C712C8091D0
:104D10007005882391F18091EC01882321F0809126
:104D2000EC01813051F580916F0581110AC18091AC
:104D30006E0591E0980F90936E05803109F0C8C020
:104D400080916C0590916D0534E0969587953A9524
:104D5000E1F7805E91400E94001810926E0510925B
:104D60006D0510926C0580916B05882331F081E010
:104D700080936F058FEF0E949A1B8091EC01823027
:104D800009F06BC08091EB01882309F466C0809123
:104D90006B05811162C08090330590903405A0901E
:104DA0003505B0903605C0907C01D0907D01E09033
:104DB0007E01F0907F01C501B4016C197D098E0957
:104DC0009F0920E031E040E050E00E94C635C20E6D
:104DD000D31EE41EF51EC0927C01D0927D01E092AC
:104DE0007E01F0927F01C701B601A30192010E94EA
:104DF000C63511E0281539054A055B050CF010E0B1
:104E00001093320580913105181751F00E94D70395
:104E100060932D0570932E0580932F059093300598
:104E20000E94D70380902D0590902E05A0902F050D
:104E3000B0903005681979098A099B0961317105BB
:104E40008105910508F48CC080912C0518131093EE
:104E50002C050E94501A1093310580916A0581112A
:104E600027C080916905882309F48FC087E0EDEEA3
:104E7000F1E0DE01119601900D928A95E1F7E09143
:104E8000EA0181E090E08C0F9D1F8E0F911DFC01C7
:104E900010810E94A0071092690580E80E94950782
:104EA000812F90E087529E4F0E94D41D0E94C4071C
:104EB0001091EC01123029F48091D801823009F070
:104EC0008AC18091EC01823009F4CCC21DE0D0C2CD
:104ED000F89483E880937A0080917B01803220F0FF
:104EE00060E088E00E94150390917C0080917A0038
:104EF00084FFFCCF80914E0580937C0080917A00E6
:104F0000806480937A0080917A0084FFFCCF909334
:104F10007C0080917B01803220F061E088E00E947B
:104F200015032091780030917900789480916C0578
:104F300090916D05820F931F90936D0580936C0582
:104F400012CF80916B05811118CF0E949A1B10928D
:104F50006F0560E270E080E090E00E94A4030DCF56
:104F6000C701B60124E630E040E050E00E94C635BB
:104F7000C20ED31EE41EF51EC0927C01D0927D01AC
:104F8000E0927E01F0927F0164CF80916F058111E4
:104F90008FCF40914005509141056091420570913D
:104FA000430580913C0590913D05A0913E05B0914F
:104FB0003F0584179507A607B70708F4F1C0C0900E
:104FC0003C05D0903D05E0903E05F0903F05C09235
:104FD0003C05D0923D05E0923E05F0923F05809160
:104FE000EA01882309F464CF80913A0590913B054A
:104FF000019690933B0580933A059770892B09F0B1
:1050000057CF8091390561E070E002C0660F771FCD
:105010008A95E2F7072E000C880B990B0E94DA3371
:105020004B015C01C701B6010E94D8339B01AC0162
:10503000C501B4010E94BE3421ED35E443EE5FE4C6
:105040000E9430339B01AC010E94BE3420E030E06E
:1050500048E452E40E9430330E94663420E030E09D
:1050600040E251E40E94BE3420E030E040EF51E4E1
:105070000E94C4320E94A2336B0170933805609382
:1050800037050E94A0078091EA01813069F489E820
:105090000E949507B601DD0C880B990B0E94AA1D92
:1050A00088E392E00E94951C8091EA018230F9F435
:1050B0008091370590913805813CEFEF9E070CF009
:1050C00078C081589F4F66E070E00E949035162F9F
:1050D0008EE80E9495071A3018F483E50E944B1A57
:1050E000612F70E090E080E04AE00E945C1D8091BA
:1050F000EA01833039F58091370590913805813C7C
:10510000FFEF9F070CF05EC081589F4F66E070E094
:105110000E949035FE01319694EF960F8F0182E048
:1051200016162CF481E0860F65300CF085E0819333
:1051300063506913F4CF1D828CE80E949507C80163
:105140000E94D41D8091EA01843099F48EE80E9477
:1051500095078091EC01823041F46091800170E00C
:1051600090E080E04AE00E945C1D82E692E00E94AE
:10517000D41D0E94C40780913C0590913D05A091EB
:105180003E05B0913F05B695A79597958795809375
:105190003C0590933D05A0933E05B0933F0588CE16
:1051A000C0904005D0904105E0904205F090430545
:1051B0000ECF875B1AE0612F0E947035819F102D02
:1051C000112486CF875B2AE0622F0E947035829F70
:1051D000602D11249FCF80916805823009F4CEC0E4
:1051E00008F072C0882309F493C0813009F4ADC07F
:1051F00081E10E94EC02892B09F486C48091590553
:1052000082FD05C080915905857009F464C18091C3
:105210005905807F90917A05992309F4E8C19CE0B3
:10522000892B8093590580915905823209F472C304
:1052300008F005C2863108F0DCC1843108F0A8C24C
:10524000813109F4ABC280916A05811107C0909148
:10525000500580916A05981709F48CC510917A055C
:1052600080916A05813009F056C4112309F455C4B0
:1052700090917A0580915805890F80935805809107
:1052800058058C322CF48091580518160CF03FC448
:10529000809158058C320CF03CC480915805809365
:1052A00058056091580582E00E94FA1E80935805C7
:1052B00010927A0580916A0560E08111609158052D
:1052C00081E00E94FA1E2FC4843009F492C008F4D1
:1052D0006EC0853009F08CCF0E940E1D0E94D7034E
:1052E000C0905B05D0905C05E0905D05F0905E0598
:1052F000C616D706E806F90608F07ACF809167054A
:1053000082FFAAC08A7F809367051093680570CFDB
:105310008CE00E94EC02892B71F4109263051092CC
:10532000640510926505109266050E940E1D81E0CD
:10533000809368055DCF8DE00E94EC02892B69F3B4
:1053400080916705837049F753CF8091670580FF8F
:10535000DCCF84608093670580915F059091600544
:10536000A0916105B091620580935B0590935C0507
:10537000A0935D05B0935E0583E0DACF8091670569
:1053800081FF6DC020915F053091600540916105FE
:1053900050916205A3E0B0E00E94093660935B057E
:1053A00070935C0580935D0590935E05E5CF81E089
:1053B0000E949A1B0E94D70300915B0510915C0527
:1053C00020915D0530915E05DC01CB01800F911FBE
:1053D000A21FB31F80935B0590935C05A0935D05AE
:1053E000B0935E05809167058C7F8093670584E0AC
:1053F0009FCF0E94D70300915B0510915C0520911F
:105400005D0530915E050617170728073907E8F490
:1054100080E00E949A1B0E94D70300915F051091C3
:1054200060052091610530916205DC01CB01800FA0
:10543000911FA21FB31F80935B0590935C05A093FF
:105440005D05B0935E0585E073CF8091670584FFAD
:10545000CFCE0E940E1DCCCE8D7F8093670510921B
:105460006805C6CE80915A051CE0882309F42ECD2C
:1054700080916F058111BCCE812F0E94EC02892B97
:1054800009F0B6CE1092630510926405109265057E
:105490001092660581E00E949A1BA8958091EC010C
:1054A0008230A1F46AE070E080E090E00E94A40302
:1054B00081E10E94EC02892B29F4812F0E94EC02E9
:1054C000892B59F380E00E949A1B92CE64E670E02B
:1054D00080E090E0EBCFF89480917A0084FFFCCFDD
:1054E000E0907A00F0907C0080917A00877F809332
:1054F0007A0080917A00876080937A0080E48093BC
:105500007C0061E070E080E090E00E94A40383E40E
:1055100080937C0080917A00806480937A008091EF
:105520007A0086FDFCCF0091780010917900E0921E
:105530007A00F0927C00789481E0809359050E9473
:10554000D7036B017C0181E10E94EC02892B71F091
:105550000E94D7036C197D098E099F096D32714035
:105560008105910578F184E0809359056AE070E047
:1055700080E090E00E94A40380915905843099F066
:105580000E94D7036C197D098E099F09643F714001
:105590008105910540F481E10E94EC02892BA1F084
:1055A00082E08093590581E10E94EC02892B89F009
:1055B00080917A05882321F080915905843031F05B
:1055C000A895F1CFA895BFCFA895D6CF8CE08093B2
:1055D000590590E10C3583E0180720F0073D134092
:1055E00020F490E2809159051BCE90E3FBCF95E02B
:1055F00017CE8C3109F4D0C0813209F024CE8091CD
:105600006A05811171C11091EC018091550590914D
:105610005605892B09F4FEC01092560510925505C7
:105620002091EC0181E090E0223011F090E080E0E8
:105630008A529E4FFC0180818093D50151C18233F3
:1056400009F450C270F4843209F4C1C1813309F005
:10565000FACD80916A05811128C281E00E94CD07B0
:10566000F2CD843309F449C28C3309F0ECCD81E1E9
:105670000E94EC02892B09F433C1A89580917A0528
:105680008823A9F361E080E00E94FA1E8091C201A4
:1056900087FF35C28AE08093C20161E084E00E9406
:1056A000FA1E80EC0E9495078DE392E00E94951C03
:1056B0000E94B01C87EF84BF0FB6F894A895809124
:1056C0006000886180936000109260000FBE80913E
:1056D00070008D7F8093700061E070E080E090E06A
:1056E0000E94A4031092880010928A0080917A0090
:1056F000877F80937A0080917A00876080937A0018
:1057000080E480937C000E9458076CED75E080E097
:1057100090E00E94A4031092680010926B00109217
:105720006C0010926D0010926E0010926F0010923B
:1057300070001092600080916C00886080936C0013
:10574000809168008260809368008FEF809364008E
:1057500088E00E9495075B9883B7817F846083BF50
:1057600083B7816083BF789485B7806685BF8F7D5E
:1057700085BF889583B78E7F83BF88E198E00FB699
:10578000F894A895809360000FBE90936000FFCFBF
:1057900082E080936A0557CD81E0FBCF80916A0556
:1057A000813041F4809158058C3124F08091580566
:1057B0008232A4F080916A05882311F180916A05F4
:1057C000813031F181E090916A05923010F360915F
:1057D000580584E00E94FA1E80E0DBCF0E94D703C8
:1057E00060936305709364058093650590936605E7
:1057F000809158058C518093570510926A0523CDEE
:10580000809158058111DACF81E080935805D6CF79
:1058100082E0D9CF8091EC018F5F8093EC01809181
:10582000EC01833010F01092EC018091EC01823099
:1058300011F41092540581E090E0123011F090E0E4
:1058400080E02091D501FC01EA52FE4F2083409177
:10585000EC0121E030E0423011F030E020E02A524B
:105860003E4FF90120812093D501209153058E529E
:105870009E4FFC0120832091EC0181E090E02230DA
:1058800011F090E080E08E529E4FFC018081809369
:105890005305909152058091EC01917099871A8679
:1058A000E985FA85E053FE4F80838091520560E3DD
:1058B00080FF6FE284E00E94FA1E62E084E00E94B2
:1058C000FA1E63E084E00E94FA1E10929305109283
:1058D0009205123029F48091EB0181110E94001D84
:1058E00081E08093D401AFCC80916A05813011F4BE
:1058F00010926A0580916A05823008F4A4CC81E098
:1059000080936A058093D4016091580584E00E94D9
:10591000FA1E99CC809153058F5F8093530581E0E7
:10592000809351058091EC01823039F480915305C8
:105930008B3018F084E0809353058091EC01823025
:1059400039F480915305843019F486E08093D501B1
:105950008091EC01823079F480915305853021F0FB
:1059600080915305863039F48091D501873018F441
:1059700087E08093D5018091EC01823059F48091C9
:105980005305873039F48091D501883018F488E0C8
:105990008093D5018091EC01823031F080915305E4
:1059A000843010F01092530510927A0563E080E085
:1059B0000E94FA1E63E084E00E94FA1EA8956CED36
:1059C00075E080E090E00E94A403A89589CF209123
:1059D00055053091560581E090E0232B11F090E0C1
:1059E00080E09093560580935505809155059091E0
:1059F0005605892B09F052C02091EC0181E090E01E
:105A0000223011F090E080E08A529E4FFC018081AC
:105A10008093D5018091550590915605892B09F009
:105A20005FCF9091520581E0911180E08093520503
:105A30008091520581708B871C86EB85FC85EE0F6B
:105A4000FF1FEE0FFF1FE853FE4F80819181A2815F
:105A5000B3818093C4019093C501A093C601B09314
:105A6000C7018091520581708D871E86ED85FE8568
:105A7000E053FE4F80818093EC018091EC018230F5
:105A800079F085E08093D5018091EC01823051F46A
:105A900084E0809353051092540522CF88E0B8CF5C
:105AA00086E0F0CF109253051BCF80916A0580915C
:105AB0006A058230A9F481E08093D4016091580591
:105AC00084E00E94FA1E81E090916A05933009F00B
:105AD00060CE6091580586E00E94FA1E83E059CEA0
