:200000000C94B4010C94DC010C94DC010C94DC010C94DC010C942E230C94DC010C9407235F
:200020000C94DC010C94DC010C94DC010C94DC010C94DC010C94DC010C94DC010C94DC01D8
:200040000C94BD220C94DC010C948B220C9465220C94DC010C94DC010C94DC010C94DC013C
:200060000C94DC010C94DC0108000000BE922449123EABAAAA2ABECDCCCC4C3E000000801B
:20008000BEABAAAAAA3E00000000BF000000803F0000000000084178D3BB4387D1133D19EA
:2000A0000E3CC3BD4282AD2B3E68EC8276BED98FE1A93E4C80EFFFBE01C4FF7F3F00000068
:2000C0000000202020202020202000FFFEFCF9F5EFE9E2D9D0C6BBB0A4988B7F73665A4EDE
:2000E00043382E251C150F09050275534458003A20004261636B6C69676874004951205091
:20010000686173650052656620667265710050412042696173206D61780050412042696100
:2001200073206D696E004351204D65737361676500435120496E74657276616C00545820AA
:200140004472697665004E6F697365204761746500564F58005072616374696365004B652E
:200160007965722053776170004B65796572204D6F6465004B6579657220537065656400BE
:2001800053656D692051534B004357204465636F64657200532D6D6574657200415454329A
:2001A00000415454004E5200414743005249540056464F204D6F64650054756E65205261FD
:2001C00074650042616E640046696C746572204257004D6F646500566F6C756D65000000B5
:2001E0000000240027002A0000000000250028002B00000000002300260029000404040490
:2002000004040404020202020202030303030303010204081020408001020408102001026F
:20022000040810200000000800020100000304070000000000000000436865636B205054C7
:20024000542F6B65790052657365742073657474696E67732E2E004245525F693263005656
:20026000616463310056616463300056616463320056617663630056332E330056352E3001
:2002800000312E3032770020520008040A050A040800000000000000000010101010101023
:2002A0001010101014141414141410101515151515150C121E12120000001C121C121C0010
:2002C0000000000000000000000064426D2000506F7765722D6F6666203733203A2D29003C
:2002E00052495420007E20455449414E4D53555257444B474F4856462A4C2A504A42584322
:20030000595A512A2A353453332A2A2A322A2A2B2A2A2A4A31363D2F2A2A2A482A372A4734
:200320002A382A39302A2A2A2A2A2A2A2A2A2A2A2A3F5F2A2A2A2A222A2A2E2A2A2A2A40FE
:200340002A2A2A272A2A2D2A2A2A2A2A2A2A2A3B212A292A2A2A2A2A2C2A2A2A2A3A2A2A44
:200360002A2A00007923BF3411241FBECFEFD8E0DEBFCDBF13E0A0E0B1E0ECEDF8E702C06B
:2003800005900D92A63CB107D9F726E0A6ECB3E001C01D92A53CB207E1F711E0C3EBD1E062
:2003A00004C02197FE010E948338C23BD107C9F70E94C4230C94613C0C94000087FF76C0AE
:2003C0003C983D9800000000000000003D9A000000000000000086FF6BC03C983D98000044
:2003E0000000000000003D9A000000000000000085FF60C03C983D980000000000000000D9
:200400003D9A000000000000000084FF55C03C983D9800000000000000003D9A00000000ED
:200420000000000083FF4AC03C983D9800000000000000003D9A000000000000000082FF2F
:200440003FC03C983D9800000000000000003D9A000000000000000081FF34C03C983D9800
:2004600000000000000000003D9A000000000000000080FF29C03C983D9800000000000094
:2004800000003D9A00000000000000003C9800000000000000003D980000000000000000DC
:2004A0003D9A000000000000000008953C9A89CF3C9A94CF3C9A9FCF3C9AAACF3C9AB5CF74
:2004C0003C9AC0CF3C9ACBCF3C9AD6CF2F923F924F925F926F927F928F929F92AF92BF9272
:2004E000CF92DF92EF92FF920F931F93CF93DF9300D000D0CDB7DEB72091AE063091AF065C
:200500004091B0065091B10629833A834B835C832091AB06C090BA06D090BB06E090BC06E1
:20052000F090BD0630E0DC010E94A0384B015C01BB0C8808982C54019B01AC01682D782D75
:20054000882D982D07E10E94913956016701E12CF12C00E010E00E94BC3849015A01498010
:200560005A806B807C80480C591C6A1C7B1C8091AC069091AD06860D971D8093B60680E1C6
:200580008093B706852D99278093B8064092B9060F900F900F900F90DF91CF911F910F911B
:2005A000FF90EF90DF90CF90BF90AF909F908F907F906F905F904F903F902F900895DC019F
:2005C000ED91FC910190F081E02D0994AF92BF92CF92DF92EF92FF920F931F93CF93DF93C6
:2005E0006C017B018B01040F151FEB015E01AE18BF08C017D10759F06991D601ED91FC9193
:200600000190F081E02DC6010995892B79F7C501DF91CF911F910F91FF90EF90DF90CF9080
:20062000BF90AF900895FC01538D448D252F30E0842F90E0821B930B541710F0CF960895B2
:2006400001970895FC01918D828D981761F0A28DAE0FBF2FB11D5D968C91928D9F5F9F7354
:20066000928F90E008958FEF9FEF0895FC01918D828D981731F0828DE80FF11D858D90E013
:2006800008958FEF9FEF0895FC01918D228D892F90E0805C9F4F821B91098F7399270895C2
:2006A0008AE096E00E94440321E0892B09F420E0822F0895FC01A48DA80FB92FB11DA35AD9
:2006C000BF4F2C91848D90E001968F739927848FA689B7892C93A089B1898C9183708064DD
:2006E0008C93938D848D981306C00288F389E02D80818F7D80830895EF92FF920F931F9313
:20070000CF93DF93EC0181E0888F9B8D8C8D98131AC0E889F989808185FF15C09FB7F894AB
:20072000EE89FF896083E889F98980818370806480839FBF81E090E0DF91CF911F910F91BA
:20074000FF90EF900895F62E0B8D10E00F5F1F4F0F731127E02E8C8D8E110CC00FB607FC52
:20076000FACFE889F989808185FFF5CFCE010E945A03F1CFEB8DEC0FFD2FF11DE35AFF4FAE
:20078000F0829FB7F8940B8FEA89FB8980818062CFCFCF93DF93EC01888D8823B9F0AA8996
:2007A000BB89E889F9898C9185FD03C0808186FD0DC00FB607FCF7CF8C9185FFF2CF80815E
:2007C00085FFEDCFCE010E945A03E9CFDF91CF910895833081F028F4813099F08230A9F021
:2007E00008958730A9F08830C9F08430B1F4809180008F7D03C0809180008F7780938000B8
:20080000089584B58F7784BD089584B58F7DFBCF8091B0008F778093B00008958091B00027
:200820008F7DF9CFCF93DF93282F30E0F901EC5DFD4F8491F901E05FFD4FD491F901E450ED
:20084000FE4FC491CC23A1F081110E94E903EC2FF0E0EE0FFF1FEE50FE4FA591B491EC91CD
:20086000ED2381E090E009F480E0DF91CF91089580E090E0FACF1F93CF93DF93282F30E047
:20088000F901EC5DFD4F8491F901E05FFD4FD491F901E450FE4FC491CC23A9F0162F81119B
:2008A0000E94E903EC2FF0E0EE0FFF1FE851FE4FA591B4918FB7F894EC91111108C0D09505
:2008C000DE23DC938FBFDF91CF911F910895DE2BF8CFCF93DF9390E0FC01E05FFD4F2491EC
:2008E00084509E4FFC0184918823C9F090E0880F991FFC01E252FE4FA591B491FC01E851D3
:20090000FE4FC591D49161110DC09FB7F8948C91209582238C938881282328839FBFDF914B
:20092000CF910895623051F49FB7F8943C91822F809583238C93E8812E2BEFCF8FB7F89457
:20094000EC912E2B2C938FBFEACF8E3008F08E508770806480937C0080917A00806480937B
:200960007A0080917A0086FDFCCF809178009091790008953FB7F8948091B5059091B6053B
:20098000A091B705B091B80526B5A89B05C02F3F19F00196A11DB11D3FBFBA2FA92F982F69
:2009A0008827BC01CD01620F711D811D911D42E0660F771F881F991F4A95D1F708958F92C1
:2009C0009F92AF92BF92CF92DF92EF92FF926B017C010E94BA044B015C01C114D104E104EF
:2009E000F104B9F00E94BA04681979098A099B09683E73408105910580F321E0C21AD10821
:200A0000E108F10888EE880E83E0981EA11CB11CE4CFFF90EF90DF90CF90BF90AF909F90F9
:200A20008F9008952FB7F8946091B1057091B2058091B3059091B4052FBF08950F931F93A7
:200A40008091080681111BC08091BD058823B9F08AE096E00E94C9030E9412050091AC059A
:200A60001091AD052091AE053091AF05601771078207930710F4A895EFCF429A3A9A809178
:200A8000C100877E8093C100F8941F910F9108953C9A3D9800000000000000003C9887B18C
:200AA0008F7C87B93C9A08953D9A00000000000000003C980895CF93DF930E94540580ECF5
:200AC0000E94DE018EE10E94DE01C7EAD6E08F850E94DE0188890E94DE0189890E94DE0184
:200AE0008A890E94DE01DF91CF910C944805CF93DF93D82FC62F0E94540580E40E94DE01F5
:200B00008D2F0E94DE018C2F0E94DE01DF91CF910C944805CF93DF93D82FC92F6FEF87E007
:200B20000E9477056FEF86E00E9477056D2F82E00E94770560E086E00E9477056C2F83E0D7
:200B40000E94770560E087E0DF91CF910C947705FF920F931F93CF93DF93C82FF62E072FDA
:200B6000142F0E94540580EC0E94DE018C2F0E94DE01CF2DD02F115020F089910E94DE0107
:200B8000FACFDF91CF911F910F91FF900C944805CF93DF931F92CDB7DEB7698341E0BE0186
:200BA0006F5F7F4F0E94A8050F90DF91CF9108952F923F924F925F926F927F928F929F9276
:200BC000AF92BF92CF92DF92EF92FF920F931F93CF93DF93CDB7DEB764970FB6F894DEBF75
:200BE0000FBECDBF898B48015901FB8AEA8ACC8ACB01BA01A90198010E944238290119016C
:200C00002430310509F497C09B01AC0160E070E080E090E000E10E949139F901750164012B
:200C200000E010E098018986DA86AB86FC860D871E872F87388B54016701E12CF12C00E0B0
:200C400010E09F010E94ED38A32FF42FE52F422F5A2F6F2F7E2FC12CD12C7601E394CB014B
:200C6000BA0127E0660F771F881F991F2A95D1F7A70196010E94423842019694982C882489
:200C800097948794B12CA12C02E0901AA108B108280D391D4A1D5B1DBC89A0E1BA9FF001FC
:200CA0001124842E8E2AE4E02E16310409F04CC0ECE01982CA828E2A8B823C832D8394E0F8
:200CC000CC0CDD1CEE1CFF1C9A95D1F7E82AEE827F83688748E0BE016F5F7F4F8989880F88
:200CE000880F880F865D0E94A805612F6295660F660F607CC988C7FE29C060688C2D885EE1
:200D00000E94C80564960FB6F894DEBF0FBECDBFDF91CF911F910F91FF90EF90DF90CF9027
:200D2000BF90AF909F908F907F906F905F904F903F902F90089540E050E0BA0111E0C12CE7
:200D4000D12C7601C3948BCFE0E0B3CF6F608989805F0E94C805EA88FB88E49CA001E59C66
:200D6000500DF49C500D112421E01227212F30E0429FC001439F900D529F900D11246AE527
:200D800070E00E941A3889898B55BACF2F923F924F925F926F927F928F929F92AF92BF923A
:200DA000CF92DF92EF92FF920F931F93CF93DF93CDB7DEB760970FB6F894DEBF0FBECDBFD0
:200DC0004B015C0149875A8329833B8321E0821623EA920621EEA20621E1B206DCF023E0D5
:200DE00030E0CA01B9010E941A3869877A8389819B81B9010E941A3869837B83C501B40144
:200E000023E030E040E050E00E94643849015A01188611C060E2861661EA960667E0A60665
:200E2000B104B4F747E0880C991CAA1CBB1C4A95D1F777E0788780E8881683EC980689ECC0
:200E4000A80681E0B806CCF46091BA067091BB068091BC069091BD06A0EE8A16A7E69A0680
:200E6000A5E3AA06B1040CF445C124E0660F771F881F991F2A95D1F749C16091BA067091CE
:200E8000BB068091BC069091BD0635E0660F771F881F991F3A95D1F7A50194010E9442386D
:200EA0001901B1E08B16BBE39B06B8E5AB06B8E0BB060CF031C120FE03C02FEF221A320A9B
:200EC000D101A501940128583341410951090E94A7386B017C012091BA063091BB0640913F
:200EE000BC065091BD064090BA065090BB066090BC067090BD064C825D826E827F820E94A6
:200F0000423829013A019101A0E1B7E20E9491386C0D7D1D8E1D9F1D2C813D814E815F8147
:200F20000E944238421653066406750619F022E0220E311CD101A50194010E94A7382B01BD
:200F40003C010091BA061091BB062091BC063091BD06C12CF12CE12CBC01A2018EEF0E9414
:200F6000D805C884E984FA8095018401B301A20180E00E94D805C884E980FB809501B30196
:200F8000A20181E00E94D805C884F12CE12C9501B301A20182E00E94D8056985062E000C5C
:200FA000770B8981681B710987FD73957D836C83C301B201A50194010E944238AC81BD81F4
:200FC000A29FC001A39F900DB29F900D11246AE570E00E942E388091BE069091BF0686170E
:200FE000970741F07093BF066093BE0660EA81EB0E94C8056CEF83E00E94C8058092A70692
:201000009092A806A092A906B092AA062092AB062091BA063091BB064091BC065091BD06A0
:20102000C301B2010E9442382450310941095E4F3695322F2227379527953093AD06209352
:20104000AC062091BA063091BB064091BC065091BD06C090BA06D090BB06E090BC06F090D1
:20106000BD06C301B2010E9442382B013C01812C912C540169875A868B877C868D869E86D7
:20108000AF86B88A9B01AC0160E070E080E090E007E10E9491392A83398356016701E12CA7
:2010A000F12C00E010E02A8139810E94ED38C901DA018093AE069093AF06A093B006B093A7
:2010C000B10660960FB6F894DEBF0FBECDBFDF91CF911F910F91FF90EF90DF90CF90BF90D1
:2010E000AF909F908F907F906F905F904F903F902F9008952091BA063091BB064091BC06D6
:201100005091BD06A7E0B0E00E94A738A50194010E9442381901CFCE94E0292E312CCBCEC4
:20112000CF936FEF83E00E94C80560E088E10E94C80560E089E10E94C805C0E160E88C2F48
:201140000E94C805CF5FC831C9F760E08BEB0E94C80560E085E90E94C80562ED87EBCF91D6
:201160000C94C8053D98000000000000000021E63AEE359903C021503109D9F796B19071AA
:201180003D9A0000000000000000911101C080E0089580916901882381F05B9A8091C100BA
:2011A00088618093C10080910806811104C08091BD0581114298789408955B98EFCFCF9302
:2011C000C82F0E941E058BB1807F80618C2B8BB98BE090E00197F1F75C980E94C9088BEE01
:2011E00090E00197F1F7CF910895CF93C82F82958F700E94DF088C2F8F70CF910C94DF0869
:201200008CE00C94F5080F931F93CF93DF934091AB05C0916801C41BDD0BEBEAF4E030E0E2
:2012200020E00FEF10E0C901B8010E941A38640F61932C0F3D1F85E0EB3AF807A1F7DF91BA
:20124000CF911F910F9108958091C6018F5B80680E94F5088EE00C94F5089091C601980F5E
:201260009093C6019091C601911103C098E09093C6019091C601993018F091E09093C601C1
:201280009091C601943021F09091C601923029F49091C601890F8093C6010C942409809192
:2012A0007A00806480937A008091F90380938A00809178009091790020916A019250245004
:2012C000330B02C0880F991F2A95E2F7803E2FEF92074CF0803E910514F08FED90E080961C
:2012E0008093F903089580E0FBCFEAE7F0E08081806480838091AA0580938A000E945B0530
:20130000809178009091790020916A01925002C0880F991F2A95E2F70C946602089590913D
:201320007E00E1E0F0E0082E01C0EE0F0A94EAF79E2B90937E0010927A0010927B001092E6
:201340007C0090917C00892B80937C0080917C0090E4611190EC892B80937C0068EB7BE74A
:2013600087E190E00E94423880E0369527952115310511F08F5FF9CF90917A008770892B29
:2013800080937A0080917A00806880937A0008958091E00580937C00EAE7F0E08081806418
:2013A000808320917800309179002F5F31408EE19CE09093BB058093BA0580918004909172
:2013C000810440917E0450917F04480F591FCA01880F991F840F951F820F931F40917C040D
:2013E00050917D04840F951F95958795309381042093800420917A0430917B0440917804C3
:2014000050917904420F531F9A01220F331F240F351F280F391F4091760450917704240F9D
:20142000351F309375042093740490937B0480937A0408958091E00580937C00EAE7F0E0FB
:2014400080818064808380917800909179002DE93AE03093BB052093BA0520917E04309168
:201460007F0430937D0420937C048F5F914090937F0480937E0408958091E00580937C0056
:20148000EAE7F0E080818064808320917800309179002F5F314083E19BE09093BB0580938C
:2014A000BA0580917804909179049093770480937604809180049091810440917E045091A8
:2014C0007F04480F591FCA01880F991F840F951F820F931F40917C0450917D04840F951F1C
:2014E000959587959093790480937804309381042093800408958091E00580937C00EAE705
:20150000F0E0808180648083809178009091790028EA3BE03093BB052093BA0520917E049B
:2015200030917F0430937D0420937C048F5F914090937F0480937E0408958091E10580934F
:201540007C0080917A00806480937A0020917800309179002F5F314080916E0490916F049A
:20156000820F931F97FD01969595879530936F0420936E042091E505222331F110926D0447
:2015800010926C04109269041092680420916C0430916D0430936B0420936A0420E82093BB
:2015A000880028EC39E03093BB052093BA05209172043091730430937104209370049093A0
:2015C000730480937204089540916A0450916B042091680430916904240F351F30936904DD
:2015E0002093680460916C0470916D04460F571F50936B0440936A0435952795359527958F
:201600003595279535952795359527952F37310514F02FEFC4CF20384FEF340714F420E806
:201620003FEF2058BCCF8091E10580937C0080917A00806480937A00409178005091790054
:201640004F5F514080916E0490916F04840F951F97FD01969C013595279550936F04409376
:201660006E048091E505882309F443C010926D0410926C04109269041092680480916C048F
:2016800090916D0490936B0480936A0480E8809388008AE19AE09093BB058093BA058091F7
:2016A000660490916704909365048093640480916204909163044091720450917304480F38
:2016C000591FCA01880F991F840F951F820F931F4091700450917104840F951F95958795C6
:2016E00090936704809366043093630420936204089540916A0450916B04809168049091D2
:201700006904840F951F909369048093680460916C0470916D04460F571F50936B04409343
:201720006A0495958795959587959595879595958795959587958F37910514F08FEFA7CF89
:2017400080384FEF940714F480E89FEF80589FCF8091E10580937C0080917A0080648093AC
:201760007A0020917800309179002F5F314080916E0490916F04820F931F97FD01969595DE
:20178000879530936F0420936E042091E505222331F110926D0410926C04109269041092FA
:2017A000680420916C0430916D0430936B0420936A0420E8209388002CE33AE03093BB0528
:2017C0002093BA052091720430917304309371042093700490937304809372040895409148
:2017E0006A0450916B042091680430916904240F351F309369042093680460916C047091A8
:201800006D04460F571F50936B0440936A0435952795359527953595279535952795359517
:2018200027952F37310514F02FEFC4CF20384FEF340714F420E83FEF2058BCCF4F925F92B7
:201840006F927F928F929F92AF92BF92CF92DF92EF92FF920F931F93CF93DF938091E1058F
:2018600080937C0080917A00806480937A0040917800509179004F5F514080916E04909157
:201880006F04840F951F97FD01969C013595279550936F0440936E048091E505882309F402
:2018A000D4C210926D0410926C04109269041092680480916C0490916D0490936B04809398
:2018C0006A0480E8809388008BE79AE09093BB058093BA05809162049091630440917204B0
:2018E00050917304480F591FCA01880F991F840F951F820F931F4091700450917104840FEF
:20190000951F95958795309363042093620460906004709061042091660430916704260D57
:20192000371D3901660C771C620E731E680E791E2091640430916504620E731E909361043A
:201940008093600460917404709175048091E505811166C280915E0490915F0420915C0470
:2019600030915D04DC01A21BB30B9D0140915A0450915B04FD01E41BF50BAF0150936D04DF
:2019800040936C0440915904542F4F5F40935904511107C0789480915E0490915F04409178
:2019A000590430935B0420935A0490935D0480935C048091710102C0759567958A95E2F75D
:2019C000C0904104D0904204A0905504B0905604E0904504F0904604A0915104B091520409
:2019E000F701EA1BFB0B0091490410914A04C0914D04D0914E0498012C1B3D0B80903D0449
:201A000090903E04861A970AC6018A199B09880F991F880F991F880E991E97FE03C05FE390
:201A2000850E911C082C892C000C881C9908000C881C991CCF01820F931F97FD0796959559
:201A400087959595879595958795880E991ECF01880F991F880F991F8E0F9F1F821B930B8D
:201A600097FF02C081589F4F880F892F881F990B880D991D37FF02C02F5F3F4F35952795C8
:201A8000280F391F80913F049091400490933E0480933D04D0924004C0923F0480914304B2
:201AA000909144049093420480934104F0924404E092430480914704909148049093460443
:201AC00080934504109348040093470480914B0490914C0490934A0480934904D0934C0488
:201AE000C0934B0480914F049091500490934E0480934D04B0935004A0934F04809153040D
:201B0000909154049093520480935104B0925404A0925304809157049091580490935604E2
:201B20008093550470935804609357048091710102C0759467948A95E2F77092C005609292
:201B4000BF0570933C0460933B04E0912D04F0912E0480912F049091300490932E048093F6
:201B60002D0480913104909132049093300480932F048091330490913404909332048093ED
:201B80003104809135049091360490933404809333048091370490913804909336048093AD
:201BA00035048091390490913A04909338048093370470923A0460923904F195E195F1092D
:201BC000E21BF30B90912C04CFEFC90FC0932C04C0902804D0902904E0902A04F0902B044A
:201BE000911173C0C092D405D092D505E092D605F092D705109228041092290410922A0491
:201C000010922B048091DD01843009F476C08091DD01833009F4E0C180912501813009F4F8
:201C2000C6C08091B3018E300CF437C18091B3018D5002C0EE0FFF1F8A95E2F78091E8052E
:201C400081113DC18091E705811159C1C0902004D0902104E0902204F0902304CF7309F0DA
:201C6000D5C1C092C805D092C905E092CA05F092CB051092200410922104109222041092F5
:201C80002304E115BEEFFB0714F4E0E0FEEFE11522E0F20714F0EFEFF1E0F0935F04E093C6
:201CA0005E04415040935904DF91CF911F910F91FF90EF90DF90CF90BF90AF909F908F9029
:201CC0007F906F905F904F900895CF01F7FDB6C1092E000CAA0BBB0B8C0D9D1DAE1DBF1D98
:201CE0008093280490932904A0932A04B0932B048091DD01843009F08ACF8091BF05909197
:201D0000C0052091BF053091C005181619061CF031952195310980913B0490913C04181615
:201D200019060CF064C280913B0490913C04821793070CF488C180913B0490913C04E09113
:201D40003B04F0913C04181619061CF0F195E195F1098091BF059091C005181619060CF030
:201D60004EC28091BF059091C00597FD03969595879595958795E80FF91F80912604909174
:201D800027049F01281B390B37FF02C02F5F3F4F35952795280F391F3093270420932604FD
:201DA000E21BF30B80912501813009F03ACF8091010190910201811564E0960774F09C018F
:201DC000232F330F330B25952595DF01A29FF001A39FF00DB29FF00D11242F2F2595259517
:201DE0003F2F330F330B37FDFEC161E070E0DB01A21BB30B6FEF7FE7681B790BA617B707D4
:201E000034F48A0F9B1F9093020180930101181619060CF0E1C12091B30180E190E041C0EA
:201E200010925F0410925E0410925D0410925C0410925B0410925A041092E50550E040E0B7
:201E400030E020E090E080E099CD40916A0450916B048091680490916904840F951F909338
:201E600069048093680460916C0470916D04460F571F50936B0440936A04959587959595D5
:201E800087959595879595958795959587958F3791050CF4C1C18FEF15CD2091B3018DE044
:201EA00090E0821B910927FD939502C0F595E7958A95E2F78091E805882309F4C3CE0091A7
:201EC0000C0410910D042091E805CF01801B910B2150330B61E070E002C0660F771F2A95CF
:201EE000E2F70E942E38FB01E00FF11FF0930D04E0930C048091E705882309F4A7CE8091C4
:201F0000E705E0901804F0901904C0901C04D0901D04843008F0B2C080911E0490911F0426
:201F2000F0931F04E0931E049F01281B390B5EE1529FC001539F900D112459E15E9F9001C2
:201F40005F9F300D1124820F931F97FD4F9695958795959587959595879595958795959513
:201F600087952091E705223009F4AAC1233009F403C2213009F4D0C1209114043091150457
:201F80005091E705A0911204B0911304523009F46AC2533009F447C2513009F40BC2E091E5
:201FA0000E04F0910F04B0931104A0931004F0931304E0931204F0921704E09216043093CD
:201FC000190420931804D0921B04C0921A0490931D0480931C043ACE8091BF059091C005EA
:201FE0008E0F9F1F2091240430912504829FF001839FF00D929FF00D11248091BF05909139
:20200000C005909325048093240406CECF01F7FF04C0882799278E1B9F0B092E000CAA0B5C
:20202000BB0B8C0D9D1DAE1DBF1D8093200490932104A0932204B093230423CE882799273E
:202040008E1B9F0B45CE8091BF059091C005E091BF05F091C005181619061CF0F195E1958F
:20206000F10980913B0490913C04181619060CF0CEC080913B0490913C0477CE8091E705EB
:20208000853009F412C208F4D6C0863009F4CCC02091160430911704A3ECBFEF873009F055
:2020A00041C20E9489384B015C012EE630E0D7010E94A03895018401060F171F281F391F96
:2020C00037FF04C0015C1F4F2F4F3F4F56E035952795179507955A95D1F70C0D1D1D10937E
:2020E0001504009314048091E705A0901204B0901304853009F4E6C108F4ADC0863009F40D
:2021000016C2873009F047C2C701880F991FB801681B790B8090160490901704860E971EA9
:2021200097FE03C08FE1880E911C959487949594879495948794959487949594879420918F
:20214000100430911104A2ECBFEF0E9489382B013C0120E730E0D5010E94A038460E571E5D
:20216000681E791E77FE05C0AFE34A0E511C611C711CC301B20126E09595879577956795DC
:202180002A95D1F7680D791D70930F0460930E04B0921104A09210047093130460931204D2
:2021A000F0921704E09216041093190400931804D0921B04C0921A04F0931D04E0931C045F
:2021C00077FF02C0695F7F4FFB01F595E795F595E795F595E7953ACD81E090E09093020125
:2021E0008093010118CE319521953109FECD80913B0490913C0491958195910998CD809166
:20220000BF059091C005919581959109AECD80913B0490913C04F7CF80384FEF940714F4B3
:2022200080E89FEF80584ECB2091160430911704A2ECBFEF36CF843009F074C12091160422
:2022400030911704A7ECBFEF0E9489384B015C0122E730E02CCF843009F09DC12091100471
:2022600030911104ACECBFEF0E9489382B013C012FE530E0D5010E94A038460E571E681EB3
:20228000791E77FE05C0BFE34B0E511C611C711CD6E07594679457944794DA95D1F7C7017C
:2022A000880F991F9801281B390BC9012091160430911704820F931FBC01640D751D64CF08
:2022C0009601220F331F280F391F60911A0470911B04260F371F37FF02C02F5F3F4F3595BD
:2022E00027956091160470911704660F771F660F771F6E0D7F1D77FF02C0695F7F4F7595F6
:2023000067957595679575956795261B370B309315042093140434CE9601220F331F280F38
:20232000391F60911A0470911B04260F371F37FF02C02F5F3F4F35952795E0911604F091E5
:2023400017045BE05E9FB0015F9F700D11245DE05E9DF0015F9DF00D11246E0F7F1F77FFE1
:2023600002C0615F7F4F75956795759567957595679575956795C9CF9601220F331F280F0C
:20238000391F60911A0470911B04260F371F37FF02C02F5F3F4F3595279560911604709185
:2023A000170477FF02C06D5F7F4F7595679575956795ABCFF701EE0FFF1FE20FF31F6091A3
:2023C000160470911704E60FF71FF7FD3196F595E79560911004709111045BE0569F80012F
:2023E000579F100D1124BD01660F771F660F771F660F771F6A0F7B1F660F771F060F171F4D
:2024000017FF02C0015F1F4F15950795159507951595079515950795E01BF10BF0930F0471
:20242000E0930E04C0CDF701EE0FFF1FE20FF31F6091160470911704E60FF71FF7FD339685
:20244000F595E795F595E795609110047091110477FF02C06D5F7F4F759567957595679577
:20246000E61BF70BDBCFF701EE0FFF1FE20FF31F6091160470911704E60FF71FF7FD3396AA
:20248000F595E795F595E7950091100410911104000F111F0A0F1B1F17FF02C00D5F1F4F91
:2024A0001595079515950795B7CF2091160430911704A4ECBFEF0E9489384B015C0121E711
:2024C00030E0F5CDC701880F991FB801681B790B8090160490901704860E971E97FE03C04D
:2024E00033E0830E911C95948794959487942091100430911104A5ECBFEF0E9489382B019A
:202500003C012AE630E0D5010E94A038460E571E681E791E77FE2DCE5FE3450E511C611C39
:20252000711C27CE0091140410911504DCCDC701880F991FB801681B790B809016049090EC
:202540001704860E971E97FE03C06FE0860E911C959487949594879495948794959487941F
:202560002091100430911104A2ECBFEF0E9489382B013C0121E730E0D5010E94A038460EFC
:20258000571E681E791E77FEF4CD7FE3470E511C611C711CEECD60910E0470910F04F8CDAE
:2025A000E091FE03E7FD1DC0F0E0EB51FD4FE491EA32B9F0E093D90191E09093FD058823C8
:2025C00091F0EAECF1E089ED91E0218121938E179F07D9F780E28093D90181E08093FE03B7
:2025E00002C08111FACF08958F929F92AF92BF92CF92DF92EF92FF92F090C10580910B04F3
:20260000F81609F47FC08091FE0581110FC00E9400098FEC0E94F50862E5F11001C060E2EB
:2026200080EC96E00E94DF020E9424098090FA039090FB03A090FC03B090FD038091C105F5
:20264000882309F496C00E94120560930704709308048093090490930A040E941205C0905C
:202660000304D0900404E0900504F09006049B01AC012C193D094E095F0969017A01C0921E
:20268000FF03D0920004E0920104F09202048091FE03823038F1D501C401880F991FAA1F33
:2026A000BB1F8C159D05AE05BF05E0F481E00E94D01260EB74E080E090E0A50194010E9481
:2026C0004238CA01B901A2E0660F771F881F991FAA95D1F723E030E040E050E00E94423889
:2026E00020937001A5E0B0E0A50194010E94A738C616D706E806F90628F081E08093FE03B2
:202700000E94D0120E941205C0900304D0900404E0900504F09006049B01AC012C193D09E6
:202720004E095F0969017A012091FA033091FB034091FC035091FD03A6E0B0E00E94A73840
:202740006C157D058E059F0538F48091FE03823018F081E00E94D0128091C10580930B0469
:20276000FF90EF90DF90CF90BF90AF909F908F9008950E9412056093030470930404809333
:202780000504909306040E941205C0900704D0900804E0900904F0900A049B01AC012C19EA
:2027A0003D094E095F0969017A01D501C401880F991FAA1FBB1FC816D906EA06FB0620F0E4
:2027C00089288A288B28A1F4BC01CD016C0D7D1D8E1D9F1D23E030E040E050E00E944238CA
:2027E0002093FA033093FB034093FC035093FD032091FA033091FB034091FC035091FD0395
:20280000A5E0B0E00E94A7386C157D058E059F0580F4C701B60123E030E040E050E00E94F0
:2028200042382093FA033093FB034093FC035093FD034091FA035091FB036091FC0370915A
:20284000FD03DB01CA01B695A795979587958C159D05AE05BF0508F055CF8091FE0390E0AA
:20286000880F991F440F551F661F771F21E04C155D056E057F0508F020E0822B8093FE03B3
:2028800080E03ECFCF93C82F809170008D7F809370008BE490E00197F1F7F894C09303061B
:2028A000CC2309F469C0809103019091040190938404809383041092FF0510920006109293
:2028C0000106109202068091DD01823009F44BC008F442C0833009F44CC0843009F446C02D
:2028E0007894CC2309F492C08091E20580937C001092BC058091DC01882361F08091DD01CB
:20290000823041F481E0C11101C080E08093C1050E94F412CC2309F4C4C08091860460E0B0
:20292000882309F477C088E00E943B048FEC0E94F50860E580EC96E00E94DF026FEF83E0EA
:202940000E94C80580E48093B30080917000826080937000CF91089589E198E19093BB0535
:202960008093BA05BDCF87EE95E1F8CF8FE499E0F5CF85E799E0F2CF8091DD01823091F5CA
:202980008091FF0590910006A0910106B0910206892B8A2B8B2B31F50E941205AB01BC0113
:2029A0008091F3059091F405A091F505B091F60523E0880F991FAA1FBB1F2A95D1F7840F7E
:2029C000951FA61FB71F8093FF0590930006A0930106B093020680918704811114C08EE172
:2029E0009CE0BCCF809183049091840490930401809303011092FF05109200061092010659
:202A000010920206ECCF8EE899E0A8CF81E08093E5056ECF88E00E943B048FEC0E94F508ED
:202A200064E580EC96E00E94DF028091DD01823079F58091DC059091DD05A091DE05B0918F
:202A4000DF059195819591090E9466020E945B056BEF83E00E94C80580E880938800809170
:202A60008204811109C08091DD01823029F0809180008F778093800080918000806280930B
:202A800080008091BD05882309F45CCF3A985ACF8091E9059091EA05892BD1F290E080E0BF
:202AA000D3CF80918A008823A1F0ABECB0E02BEE30E0ED91F0E0E491F0E0E555FB4F808135
:202AC00080938A00C9010197F1F780E0AA3EB80781F78091800080688093800080918000F3
:202AE0008F7D8093800060E08AE00E943B0410928A006CEF83E00E94C8058091FF0590911D
:202B00000006A0910106B0910206892B8A2B8B2B21F080918704811109C08091E30561E0CD
:202B2000823009F460E088E00E943B048091E9059091EA050E9466020E945B058FEC0E9425
:202B4000F5088091080662E5811166E580EC96E00E94DF0280910806811104C08091BD0588
:202B600081113A9A84E0EFCECF92DF92EF92FF926B017C010E941205C60ED71EE81EF91E62
:202B80000E9412056C157D058E059F05C0F4A89581E10E941204892B29F48CE00E94120442
:202BA000892B39F481E10E941204892B71F0A895F9CF8DE00E941204892B11F7F3CF80E0FD
:202BC000FF90EF90DF90CF90089581E0F9CF90918A008091AA059817A8F4AAEEB0E02BEE5C
:202BE00030E0EC91F0E0E491F0E0E555FB4F908190938A00F9013197F1F7119790E0AB3C48
:202C0000B90779F780938A00E091B20184E0E89FF0011124EB51FE4F20813181428153813F
:202C2000AEE1B3E00E94A73820EC32E140E050E00E944238809100013091F8032802C001AD
:202C40001124EFE7F0E0BF010E942E38360F3093F8038091F803309100012802C0011124E0
:202C6000BF010E942E38361B309300018091F8034091B301082E000C990B20E130E0241BB0
:202C8000310947FD339502C0959587952A95E2F780588093880008950F931F93CF93DF9316
:202CA000E6EDF3E024EF33E042815381419351932E173F07C9F79C01220F331F4091D403E6
:202CC0005091D503240F351F440F551F841B950BE3E0F0E0BF010E942E387093D503609385
:202CE000D4038091D2039091D303880F991F820F931FBF010E942E387093D3036093D20325
:202D0000261B370B3093F5032093F4038091E4039091E503FC01EE0FFF1F4091E20350911B
:202D2000E3036091E6037091E703461B570B2091DA033091DB036091EE037091EF03261BE2
:202D4000370B220F331F220F331F6091D6037091D703A091F203B091F3036A1B7B0B260FE9
:202D6000371F220F331F6091DE037091DF03A091EA03B091EB036A1B7B0BC5E1C69FD00191
:202D8000C79FB00D11242A0F3B1FBA0114E0660F771F1A95E1F7260F371F37FF02C0215C07
:202DA0003F4F66E0359527956A95E1F7240F351FE230F10544F4CF01F7FD0196959587957A
:202DC000919581959109B9012230310594F075956795681779073CF1E230F1050CF4DEC07F
:202DE000CF01B3E095958795BA95E1F7860F971F22C037FF02C06F5F7F4F75956795719536
:202E000061957109681779073CF7A90137FF02C0495F5F4FC3E055954795CA95E1F7519592
:202E20004195510906C0A901D3E055954795DA95E1F7840F951F40916B014817190608F038
:202E4000BEC0409103064111B8C04FEF4093030640916A0102C0880F991F4A95E2F78F3F63
:202E6000910509F020F440916A01483011F48FEF90E040910306442309F4AAC085559B4F9C
:202E8000DC018C918093F903E90137FF04C0CC27DD27C21BD30B8F01F7FF04C000271127EA
:202EA0000E1B1F0B0C171D070CF094C045EE4003C001419F900D1124BE010E942E386A59B5
:202EC0007F4F609FC001619F900D709F900D1124BE010E942E3886E990E0AC01461B570BD0
:202EE000BA01F7FF06C08CE291E0DC01A61BB70BBD0137FF03C07195619571098091D0030B
:202F00009091D1039B01281B390B7093D1036093D00337FF02C0285A3D4F8091E70588234E
:202F200009F474C08091E705833009F472C08CE291E08217930714F58091E705882309F4C1
:202F40006BC08091E705833009F469C08CE291E0281B390B621B730B7093D1036093D00372
:202F60008091E70528E532E0882341F08091E7052CE231E0833011F426E930E08091DD0177
:202F8000813009F04FC0C90123E0880F991F2A95E1F7DF91CF911F910F910895AF01F7FF62
:202FA00002C0495F5F4FA3E055954795AA95E1F788279927841B950B19CF4EEF47CF4091DF
:202FC0000306442309F444CF4091030641503ECF80E058CF70E060E0309709F48ACF45EE92
:202FE000BE014603C001479F900D1124B8010E942E386A597F4F6C9FC0016D9F900D7C9F6E
:20300000900D1124B8010E942E386BCF88E592E090CF86E990E08DCF88E592E099CF86E9B4
:2030200090E096CF48EF4203C001439F900D1124B0CFCF93DF93C0917800D09179008091C3
:203040007A00806480937A000E945B058091F90380938A008091780090917900C80FD91FE7
:2030600080917A00806480937A008091F6039091F7030E944C162091780030917900C20FF7
:20308000D31F20917A00206420937A000E946602209178003091790090917A009064909343
:2030A0007A00CE01820F931F97FD03969595879595958795805E91409093F7038093F603F3
:2030C00080910306813031F410928A006FEF83E00E94C805809103068F3F31F46BEF83E0DA
:2030E000DF91CF910C94C805DF91CF910895CF93C62F0E941E058BB1807F80619C2F9295FC
:203100009F70892B8BB96BB1607F6061CF706C2B3C9800005C986BB93C9A3C9800005C988C
:203120003C9A0E94C9088BEE90E00197F1F781E090E0CF9108950F931F93CF93DF938C015A
:20314000D0E0C0E0F801EC0FFD1F6491662341F080EC96E00E947718892B11F02196F2CF20
:20316000CE01DF91CF911F910F91089582EC90E00C949B180F931F93CF93C62F8A018130AB
:2031800009F042C080E80E94F5086C2F62956F70CF706A3031F461E380EC96E00E94DF0215
:2031A00060E0605D80EC96E00E94DF026EE280EC96E00E94DF02CA3030F0CA5061E380EC14
:2031C00096E00E94DF0260E36C0F80EC96E00E94DF0260E280EC96E00E94DF02C8010E94C1
:2031E0009B180E94B6180E94B61880EC0E94F5088091FE058230A8F06EE380EC96E0CF9140
:203200001F910F910C94DF0280EC0E94F508C8010E949B188FEE90E0CF911F910F910C9477
:203220009B18CF911F910F91089580E80E94F5088AEE90E00E949B1861E080EC96E00E9485
:20324000DF020E94B6180C94B6188DE00E941204892B51F48091EE0591E0811192E0809107
:20326000FB05892B8093FB058CE00E941204892B51F48091EE0592E0811191E08091FB05E0
:20328000892B8093FB050895089590E080E008950F931F93CF93DF9390E080E00E948A0597
:2032A000D0E0C0E001E010E0C8010C2E02C0880F991F0A94E2F78095909581600E948A0516
:2032C0006EE170E080E090E00E94DF0490E080E00E948A052196C031D10531F7DF91CF9183
:2032E0001F910F910895FB0101900020E9F73197AF01461B570BDC01ED91FC910280F3813B
:20330000E02D09948F929F92AF92BF92EF92FF920F931F93CF93DF93CDB7DEB7A1970FB6CF
:20332000F894DEBF0FBECDBF7C01FA01CB0119A2223008F42AE08E010F5D1F4F822E912CDE
:20334000B12CA12CBF01A50194010E944238F901CA016A300CF5605DD8016E938D01232BD9
:20336000242B252B79F790E080E0109721F0BD01C7010E947319A1960FB6F894DEBF0FBE10
:20338000CDBFDF91CF911F910F91FF90EF90BF90AF909F908F900895695CDECFCF92DF92B6
:2033A000EF92FF920F931F93CF93DF9377FF1DC06A017B01EC016DE20E94DF028C014427E2
:2033C0005527BA014C195D096E097F092AE0CE010E948219800F911FDF91CF911F910F9177
:2033E000FF90EF90DF90CF9008952AE0DF91CF911F910F91FF90EF90DF90CF900C94821913
:20340000AB01770F660B770B0C94CE19EF92FF920F931F93CF937C018B01C42F80EC0E942E
:20342000F50861E280EC96E00E94DF0261E280EC96E00E94DF02C7010E949B18CC2379F0CA
:203440006DE380EC96E00E94DF02B80180EC96E00E94001A6C2F80EC96E00E94DF020E94BE
:20346000B6186CED75E080E090E00E94DF04A895CF911F910F91FF90EF90089561157105F7
:2034800011F00C94731990E080E00895EF92FF920F931F93CF93DF93CDB7DEB7A0970FB643
:2034A000F894DEBF0FBECDBF6091B5017091B6018091B7019091B80120E03AEC4AE95BE3F1
:2034C0000E944238122F032F20E432E44FE050E00E944238F22EE32E28EE33E040E050E01E
:2034E0000E9442387F936F933F932F93EF92FF920F931F9383E692E09F938F938E010F5F76
:203500001F4F1F930F930E94C039B8018AE096E00E943E1A66E772E0C8010E94AA39B80115
:203520008AE096E00E943E1A6EE772E0C8010E94AA39B8018AE096E00E943E1A6091DD015A
:2035400070E06F5F7F4F8AE096E00E94001A63E872E0C8010E94AA39B8018AE096E00E94BD
:203560003E1A0FB6F894DEBF0FBECDBFA0960FB6F894DEBF0FBECDBFDF91CF911F910F910F
:20358000FF90EF900895CF92DF92EF92FF920F931F93CF93DF93CDB7DEB7A0970FB6F894D3
:2035A000DEBF0FBECDBF8AE096E00E944403892B09F494C00E941205665F7F4F8F4F9F4F2F
:2035C0006093AC057093AD058093AE059093AF058AE096E00E942203E091AA0491E09E0F11
:2035E0009093AA04F0E0E657FB4F80838B3309F0BFC1E091AA04F0E0E657FB4F10821092BF
:20360000AA048091BD05811105C081E08093BD051092DB0180918A04863409F08BC0809170
:203620008B04813409F064C180918C048B3309F064C08091BD05882309F44AC06091B50180
:203640007091B6018091B7019091B80120E03AEC4AE95BE30E944238122F032F20E432E4CF
:203660004FE050E00E9442386B017C013F932F930F931F938CE892E09F938F938E010F5FC7
:203680001F4F1F930F930E94C039B8018AE096E00E943E1AC701B60128EE33E040E050E042
:2036A0000E9442387F936F933F932F9387E992E09F938F931F930F930E94C039B8018AE0FE
:2036C00096E00E943E1A0FB6F894DEBF0FBECDBF6AE070E080E090E00E94DF04A0960FB649
:2036E000F894DEBF0FBECDBFDF91CF911F910F91FF90EF90DF90CF900895809197048B3345
:2037000099F54BE050E06CE874E0CE0101960E94B1391C86CE0101960E94C6346093B501D9
:203720007093B6018093B7019093B80181E08093C501CECF8934D9F480918B04863461F418
:2037400080918C048B3381F48091BD05882309F4BFCF0E94461ABCCF843431F480918C0481
:2037600061EA72E08B33F9F06DED72E01CC0803569F480918B048335B9F780918C0468EA70
:2037800072E08B3381F0813379F7A2CF813499F480918B04893409F079C080918C048B33E3
:2037A00039F46DEA72E08AE096E00E943E1A90CF8033D1F6F6CF8D34C1F580918B048434EC
:2037C00099F680918C048B33A9F462EB72E08AE096E00E943E1A6091DD0170E06F5F7F4F2A
:2037E0008AE096E00E94001A6BE38AE096E00E94DF026ECF90918D049B3309F0B5CF81536E
:203800008093DD019091E6058091DD01092F017010E0F801EF53FE4F808381E08093C5015E
:203820001092BF061092BE0653CF8235C1F480918B04883509F044C080918C048B3309F07B
:2038400093CF80E00E9442141092FF0510920006109201061092020665EB72E0A4CF84353F
:2038600001F580918B04883509F07ECF80918C048B3321F481E00E9442142ACF8033D1F372
:203880008133C1F3823309F06FCFF4CF873409F06BCF80918C046AEB72E0803309F064CFFC
:2038A00082CF8835D9F580918B04843509F05CCF80918C046FEB72E0813309F055CF73CF4F
:2038C000843541F480918C0464EC72E0813309F04BCF69CF8334B9F480918C048B3309F0FC
:2038E00043CF1092EA051092E90569EC72E05BCF8C3409F039CF80918C046DEC72E0803304
:2039000009F032CF50CF833509F02ECF80918C0462ED72E08B3309F027CF45CF863509F029
:2039200023CF80918B04883509F01ECF80918C048B3309F419CF282F082E000C330B3F9365
:203940008F9387ED92E09F938F938E010F5F1F4F1F930F930E94C039B8018AE096E00E9476
:203960003E1A0F900F900F900F900F900F90B0CE8091AA04803208F4B1CE60EE72E08AE0C1
:2039800096E00E943E1A1092AA04A8CE0E94500381110C94C31A0895CF93DF93282FCB0159
:2039A0006091880470918904C42FD0E0233079F0243089F04091880450918904C40FD51F3E
:2039C000D0938904C0938804DF91CF910895AE010E940B35EFCFAE010E941B35EBCF0F935F
:2039E0001F93CF93DF93EB01823008F058C0088119812A813B8190910906492F990F550B59
:203A0000660B770B400F511F621F731F77FF1FC0188219821A821B82182F109209060E9484
:203A2000000950E040E060E0812F0E94BA18488159816A817B8180EC96E00E94CE190E9432
:203A4000B618DF91CF911F910F910C94B618088119812A813B8190910906492F990F550BD0
:203A6000660B770B400F511F621F731F14161506160617066CF2088119812A813B819091FA
:203A80000906492F990F550B660B770B400F511F621F731F488359836A837B83BDCF44E090
:203AA000DF91CF911F910F910C94CC1C4F925F926F927F928F929F92AF92BF92CF92DF92C4
:203AC000EF92FF920F931F93CF93DF93CDB7DEB7FB01823008F067C0908140900906042CA6
:203AE000000C550866087708490E511C611C711C4C145D046E047F047CF5C0826901F42EAD
:203B00005F01E82E109209060E940009A6016F2D8E2D0E94BA18F50101151105B1F54081D8
:203B200050E070E060E02AE080EC96E00E9482190E94B618DF91CF911F910F91FF90EF90FE
:203B4000DF90CF90BF90AF909F908F907F906F905F904F900C94B6189081C09009060C2CC9
:203B6000000CDD08EE08FF08C90ED11CE11CF11C8C149D04AE04BF0414F48082BFCF50816A
:203B800090910906950F9083B9CF808190E0880F991F080F191FF8016081718180EC96E0F9
:203BA0000E943E1AC5CF41E0DF91CF911F910F91FF90EF90DF90CF90BF90AF909F908F907E
:203BC0007F906F905F904F900C94CC1C8F929F92AF92BF92CF92DF92EF92FF920F931F9365
:203BE000CF93DF93C82FD62F00E511E08DEF8C0F823088F41093890400938804BB24B39465
:203C0000BD1648F46B2D85E00E94E61DB394F8CFDCE2C2E0EBCFDF3F61F4D1E06D2F8C2F50
:203C20000E94E61DDF5FD233C9F7C23009F425C4ACC0D23308F01BC4ED2FF0E0EE5DF14E46
:203C40000C9483382F22541EB31ED31EE31EF31E031F121F781F871F971FA71FB71F372237
:203C6000C71F37223722D61FE51F3E204E205D206C207B208A20372237229A20AA2037220A
:203C80003722372237223722432158216921DD21372237223722372237223722ED21FC211A
:203CA0000222052213222122C23008F055C08091B30140910906082E000C990BAA0BBB0B3C
:203CC000042E000C550B660B770B840F951FA61FB71F8F3F9F4FAF4FBF4F04F58FEF80931F
:203CE000B301109209060E94000947ED51E061E18C2F0E94BA188091B30187FD05C06BE283
:203D000080EC96E00E94DF026091B301062E000C770B80EC96E00E94001AB8C08091B301FC
:203D200040910906082E000C990BAA0BBB0B042E000C550B660B770B840F951FA61FB71FCF
:203D40004197A105B10514F080E1C9CF8091B30190910906890FC3CF41E063EB71E08C2F98
:203D60000E94CC1C12C0E4E08E2E912CA12CB12CC12CD12C760102E711E022ED31E042E182
:203D80006DED71E08C2F0E94561D8D2FDF91CF911F910F91FF90EF90DF90CF90BF90AF9062
:203DA0009F908F90089577E0872E912CA12CB12CC12CD12C760108E511E028EC31E043E11D
:203DC00067EE75E0DFCF6AE0862E912CA12CB12CC12CD12C760102E411E023EC31E044E1A9
:203DE00064EB71E0CFCF59E0852E912CA12CB12CC12CD12C76010EE211E029EB31E045E1A5
:203E000066EC71E0BFCF812C912C54018394C12CD12C76010AE211E020EB31E046E166EEC6
:203E200075E0B0CFC23008F05FC08091E9059091EA0540910906092E000CAA0BBB0B042EC6
:203E4000000C550B660B770B840F951FA61FB71FB7FF21C01092EA051092E90510920906B8
:203E60000E9400094CEA51E067E18C2F0E94BA18E091E905F091EA05EE0FFF1FEA5DFE4F3B
:203E80006081718180EC96E00E943E1A0E94B6180E94B6187ACF8091E9059091EA0540916A
:203EA0000906092E000CAA0BBB0B042E000C550B660B770B840F951FA61FB71F0297A10583
:203EC000B1053CF081E090E09093EA058093E905C5CF8091E9059091EA0520910906820F28
:203EE000911D27FD9A95F0CF42E069EE75E037CF812C912C54018394C12CD12C760106E20F
:203F000011E028EA31E048E165E271E03BCF98E0892E912CA12CB12CC12CD12C760110E0DB
:203F200000E025EA31E049E168EE75E02BCF87E0882E912CA12CB12CC12CD12C760105E1E7
:203F400011E021EA31E04AE163EE75E01BCF00E1802E912CA12CB12CC12CD12C760110E052
:203F600000E02CE931E04BE161E771E00BCF14E0812E912CA12CB12CC12CD12C76010BE046
:203F800011E024E931E04CE16BED71E0FBCE812C912C54018394C12CD12C760106E211E063
:203FA00029E831E041E26CED71E0ECCE812C912C54018394C12CD12C760106E211E020E840
:203FC00031E044E267E874E0DDCEC23008F052C08091B0019091B10140910906092E000CA8
:203FE000AA0BBB0B042E000C550B660B770B840F951FA61FB71F181619061A061B06ACF0A9
:2040000081E090E09093B1018093B001109209060E94000944E751E065E28C2F0E94BA1808
:204020006091B0017091B10174CE8091B0019091B10140910906092E000CAA0BBB0B042E84
:20404000000C550B660B770B840F951FA61FB71FCD97A105B1051CF08CE390E0D3CF8091C1
:20406000B0019091B10120910906820F911D27FD9A95C8CF42E060EB71E071CEF2E08F2E47
:20408000912CA12CB12CC12CD12C760105E011E029E631E046E269EC71E074CE812C912CE8
:2040A00054018394C12CD12C760106E211E02EE531E047E26EEE75E065CE812C912C54016A
:2040C0008394C12CD12C760106E211E025E531E048E266E874E056CE812C912C54018394AE
:2040E000C12CD12C760106E211E021E531E041E368E076E047CE812C912C54018A94C12CCE
:20410000D12C760110E000E026E431E042E36BE671E038CE48E0842E912CA12CB12CC12C45
:20412000D12C760110E000E02DE331E043E36AE671E028CE3CE3832E912CA12CB12CC12C39
:20414000D12C760110E000E021E331E041E46DE771E018CEC43009F48AC030F4C23070F0A5
:2041600040E36EE771E0FBCDC630D1F780918504803318F48F5F80938504C1E08091FE0558
:20418000833011F0109285048091FE05823019F483E08093FE05E0918504F0E0E258FE4FA3
:2041A0002081822F022E000C990B30910906AC01430F511D37FD5A9540325105C4F0309130
:2041C0000906AC01430F511D37FD5A95452B79F030910906830F911D37FD9A958B3591059E
:2041E0000CF043C080910906280F208302C080E280831092090646E251E062E48C2F0E94F2
:20420000BA1810E000E0E0918504E695E695E69588E0E89FF0011124E00FF11FE258FE4FF6
:204220006081662349F080EC96E00E94DF020F5F1F4F0D30110539F761E080EC96E00E9452
:20424000DF020E94B6182091FE05809185048770805C91E0223008F490E0890F80680E949B
:20426000F5088EE00E94F50890CD8AE5C1CFEEEAF1E082918F7D09F073CF108291E0EE37AD
:20428000F907B9F76DCF80906801882D8150990B4C01092C000CAA08BB08C12CD12C76012B
:2042A00010E000E02AE131E041E86BEA75E06ACDC090AB05D12CF12CE12C812C912C540122
:2042C0008A9410E000E02EE031E042E868E671E059CDC23008F06DC08091BA069091BB0618
:2042E000A091BC06B091BD0640910906042E000C550B660B770B840F951FA61FB71F8038BC
:204300009F49A54DB10524F580E89FE9A5EDB0E08093BA069093BB06A093BC06B093BD0630
:20432000109209060E94000945E051E063E88C2F0E94BA184091BA065091BB066091BC066B
:204340007091BD062AE080EC96E00E9482199ECD8091BA069091BB06A091BC06B091BD065B
:2043600040910906042E000C550B660B770B840F951FA61FB71F81309F43AB4AB1402CF055
:2043800080E09FE3ABEAB1E0C3CF8091BA069091BB06A091BC06B091BD0640910906042EC7
:2043A000000C550B660B770B840F951FA61FB71FAFCF44E06AEB76E0D2CC94EB892E912CDE
:2043C000A12CB12CC12CD12C760110E000E02CEF30E044E86EEA71E0D5CC812C912C5401A2
:2043E0008394C12CD12C760106E211E022EF30E041EA69E671E0C6CC69EB71E08C2F0E94EC
:20440000EF1CC3CC6DEB71E0F9CF812C912C5401C12CD12C760110E000E030E020E040E071
:2044200061EC71E0AFCC812C912C5401C12CD12C760110E000E030E020E040E062EC71E0A4
:20444000A1CC812C912C5401C12CD12C760110E000E030E020E040E06EEB75E093CC109220
:20446000FE050E94151981E08093C5018ECCC23009F08BCCDC3209F488CC809109062FEFF6
:204480003FEF181614F421E030E08D2F90E0280F391F2D32310514F42091090620910906CF
:2044A000121674F02FEF3FEF820F931F8D970CF0AFCB80910906181634F08FEFD80FA9CBFC
:2044C00021E030E0F1CF81E0F9CF1F920F920FB60F9211242F933F934F935F936F937F9379
:2044E0008F939F93AF93BF93EF93FF938AE096E00E945A03FF91EF91BF91AF919F918F91F1
:204500007F916F915F914F913F912F910F900FBE0F901F9018951F920F920FB60F921124D7
:204520002F938F939F93EF93FF93E0911A06F0911B068081E0912006F091210682FD1BC084
:204540009081809123068F5F8F7320912406821741F0E0912306F0E0E65FF94F958F80934D
:204560002306FF91EF919F918F912F910F900FBE0F901F9018958081F4CF1F920F920FB6B0
:204580000F9211242F933F938F939F93AF93BF938091B1059091B205A091B305B091B40547
:2045A0003091B00523E0230F2D3758F50196A11DB11D2093B0058093B1059093B205A0933E
:2045C000B305B093B4058091B5059091B605A091B705B091B8050196A11DB11D8093B505A5
:2045E0009093B605A093B705B093B805BF91AF919F918F913F912F910F900FBE0F901F90C4
:20460000189526E8230F0296A11DB11DD2CF1F920F920FB60F9211242F933F934F935F9393
:204620006F937F938F939F93AF93BF93EF93FF93E091BA05F091BB050995FF91EF91BF91FB
:20464000AF919F918F917F916F915F914F913F912F910F900FBE0F901F9018951F920F92A1
:204660000FB60F9211240F931F932F933F934F935F936F937F938F939F93AF93BF93CF9385
:20468000DF93EF93FF93C091B90580E1C89FE001112486E00E9412048C0187E00E941204DD
:2046A000000F111F8C2B802B8093B9058332B9F08233D9F0FF91EF91DF91CF91BF91AF913C
:2046C0009F918F917F916F915F914F913F912F911F910F910F900FBE0F901F901895809152
:2046E00009068F5F80930906E5CF809109068150F9CFEAE0F6E01382128288EE93E0A0E0FC
:20470000B0E084839583A683B78389E492E09183808385EC90E09587848784EC90E097878B
:20472000868780EC90E0918B808B81EC90E0938B828B82EC90E0958B848B86EC90E0978B50
:20474000868B118E128E138E148EE0ECF6E0138212828BE592E09183808388B18F7C88B97D
:204760003D9800000000000000003C983C9A80E498E7ADE7B1E08093BA069093BB06A093C8
:20478000BC06B093BD060895CF93DF93CDB7DEB768970FB6F894DEBF0FBECDBF789484B53C
:2047A000826084BD84B5816084BD85B5826085BD85B5816085BD80916E00816080936E00DF
:2047C000109281008091810082608093810080918100816080938100809180008160809322
:2047E00080008091B10084608093B1008091B00081608093B00080917A00846080937A006E
:2048000080917A00826080937A0080917A00816080937A0080917A00806880937A00109203
:20482000C10060E08AE00E943B040E94900814BE88E198E20FB6F894A895809360000FBE6F
:204840009093600080E480937C001092680010926B0010926C0010926D0062E087E00E9463
:20486000690462E086E00E94690480916D00806C80936D008091680084608093680086E0EC
:204880000E9412047C0187E00E941204EE0CFF1CE82AE092B905789460E08BE00E943B04D5
:2048A00061E088E00E943B0460E08AE00E943B0460E089E00E943B0461E089E00E946904A0
:2048C00061E08BE00E94690461E088E00E94690461E08AE00E94690460E081E10E946904FA
:2048E00062E08DE00E94690460E08CE00E94690460E08EE00E943B0460E08FE00E943B0420
:2049000060E08EE00E94690460E08FE00E94690464E670E080E090E00E94DF048AB18F6102
:204920008AB93C9A8BE39DE00197F1F73C9A5C9883E30E94F508ABE4EA2EA6E4FA2EC70103
:204940000197F1F783E30E94F508C7010197F1F783E30E94F50883E592E00197F1F782E3C6
:204960000E94F50888E20E94F5088CE00E94F50881E00E94F50863E070E080E090E00E947F
:20498000DF0486E00E94F5081092C0051092BF055E0129E0A20EB11C8091BF059091C005C2
:2049A0000897A9F16091BF057091C005E3E0660F771FEA95E1F766577D4F48E050E0CE016E
:2049C00001960E94ED348091BF059091C0058F5F38E0839FC0011124887380640E94F50826
:2049E000CE0101967C01F70161917F0180EC96E00E947718EA14FB04B1F78091BF059091BC
:204A0000C00501969093C0058093BF05C5CF0E94151987E80E94F50887E892E00E949B18D3
:204A200081E892E00E949B180E94B6186FEF83E00E94C80560E08AE00E943B0460E088E073
:204A40000E943B0464E670E080E090E00E94DF048FE00E94A504BC01990F880B990B0E948E
:204A60004F369B01AC010E94343520E030E040EA50E40E945C3720E030E040E85AE30E94A3
:204A80005C374B015C0161E088E00E943B042AE939E949E950E4C501B4010E94FF36181635
:204AA00054F426E636E646EA50E4C501B4010E94A03587FD09C0C501B4010E94173646E54E
:204AC0008CE792E00E94061A83E10E94A504BC01990F880B990B0E944F3620E030E040EA83
:204AE00050E40E945C3720E030E040E85AE30E945C374B015C012DEC3CEC4CE450E40E94B3
:204B0000FF36181654F423E333E343E750E4C501B4010E94A03587FD09C0C501B4010E9414
:204B2000173646E587E792E00E94061A86E00E94A50480917C00886080937C0061E070E015
:204B400080E090E00E94DF0480917A00806480937A0080917A0086FDFCCF609178007091C1
:204B6000790090E080E00E944D369B01AC016AE979EA8CE894E40E94A5354B015C0123E3B1
:204B800033E343E950E40E94FF36181654F426E636E646EA50E4C501B4010E94A03587FD50
:204BA00009C0C501B4010E94173646E581E792E00E94061A3A986AE070E080E090E00E941D
:204BC000DF0480E10E94A504BC01990F880B990B0E944F3620E030E040EA50E40E945C37E0
:204BE00020E030E040E85AE30E945C374B015C0126E636E646EE5FE30E94FF36181654F477
:204C00002DEC3CEC4CE450E4C501B4010E94A03587FD09C0C501B4010E94173646E58BE6AA
:204C200092E00E94061A8EE00E94A504BC01990F880B990B0E944F3620E030E040EA50E456
:204C40000E945C3720E030E040E85AE30E945C374B015C0126E636E646EE5FE30E94FF3657
:204C6000181654F42DEC3CEC4CE450E4C501B4010E94A03587FD09C0C501B4010E94173670
:204C800046E585E692E00E94061A8FE00E94A504BC01990F880B990B0E944F3620E030E0BD
:204CA00040EA50E40E945C3720E030E040E85AE30E945C374B015C0126E636E646EE5FE370
:204CC0000E94FF36181654F42DEC3CEC4CE450E4C501B4010E94A03587FD09C0C501B40128
:204CE0000E94173646E58FE592E00E94061AA8950E94BA041092C0051092BF058091BF05B3
:204D00009091C005883E934061F00E945B058091BF059091C00501969093C0058093BF05B0
:204D2000EDCF0E94BA046091B5017091B6018091B7019091B8012AE530E050E040E00E9444
:204D4000C606A8951092C0051092BF05B12CA12C8091BF059091C005883E934009F468C05A
:204D60008091BF059091C0050E9466020E945B0564E0E62EF12C0E94540580EC0E94DE010F
:204D80008AE18E0D0E94DE010E9448050E94540581EC0E94DE0180E80E94B208982E80E4C6
:204DA0000E94B208982A80E20E94B208982A80E10E94B208982A88E00E94B208982A84E0EC
:204DC0000E94B208982A82E00E94B208982A81E00E94B208982A3C980000000000000000E2
:204DE0003D9800000000000000003C983D9A00000000000000000E944805F701E955F94FC6
:204E00008385891519F03FEFA31AB30A8FEFE81AF80A98E0E916F10409F0ADCF8091BF0503
:204E20009091C00501969093C0058093BF0590CFA895A114B10431F040E2B50187E592E059
:204E40000E94061A84E080936A01E091B20124E0E29FF0011124EB51FE4F80819181A28120
:204E6000B3818093DC059093DD05A093DE05B093DF0561E383E00E94E61D8091BE058735EC
:204E800009F42AC187E58093BE056FEF84E00E94E61D80EC0E94F50886E492E00E949B1845
:204EA00064EF71E080E090E00E94DF04A8951092BF061092BE06FF24F394F092C5018091EC
:204EC000B4018093AF01109208061092E8051092EA051092E9058091E605082F017010E066
:204EE000000F111F000F111FF801E754FE4F80819181A281B3818093B5019093B601A09373
:204F0000B701B093B8018091E60580FBCC24C0F8D12CF601EF53FE4F80818093DD010E94A7
:204F200003090E941519F092E5051092BC058EE19CE09093BB058093BA0524E63EED45E0CC
:204F400050E061E082E00E948F0980917C008093E2058091E30561E0813009F460E029E983
:204F600037E741E050E080E00E948F0980917C008093E0058091E30561E0813009F460E07B
:204F800029E937E741E050E081E00E948F0980917C008093E1051092800010928100809119
:204FA0008000826A8093800080918100896180938100109287008FEF809386001092890077
:204FC0001092880010928B0010928A008091B6008F7D8093B6001092B0001092B10010926B
:204FE000B2008091B00082608093B0008091B10084608093B1008091700082608093700049
:2050000084E08093B300809180008F7D8093800060E08AE00E943B04E0911A06F0911B0678
:2050200082E08083E0911606F09117061082E0911806F091190680E4808310922206E0917D
:205040001E06F0911F0686E08083E0911C06F0911D06808180618083E0911C06F0911D06CA
:20506000808188608083E0911C06F0911D06808180688083E0911C06F0911D0680818F7DDD
:2050800080838091BD0581110E94461A1092FC0580E18093FB056091B0017091B1018CEDC1
:2050A00095E00E942E38CB01770FAA0BBB0B8093F3059093F405A093F505B093F6058DE0A7
:2050C0000E941204892B99F440E070E060E088E392E00E94061AF3CF81E10E941204892BF8
:2050E00009F0D0CE6FEF83E00E94E61DE0CE8091DD01823049F48091C901823029F08CE015
:205100000E941204892B01F342E0442E512C612C712C80910806882391F18091DD0188230E
:2051200021F08091DD01813051F58091070681111BC18091060691E0980F909306068031D7
:2051400009F0D9C0809104069091050634E0969587953A95E1F7805E91400E944C1610921F
:205160000606109205061092040680910306882331F081E0809307068FEF0E9442148091DC
:20518000DD01823009F07AC08091DC01882309F475C080910306811171C08091FF0590916E
:2051A0000006A0910106B0910206892B8A2B8B2B09F064C08090C8059090C905A090CA0562
:2051C000B090CB05C0906C01D0906D01E0906E01F0906F01C501B4016C197D098E099F09A0
:2051E00020E031E040E050E00E946438C20ED31EE41EF51EC0926C01D0926D01E0926E01CA
:20520000F0926F01C701B601A30192010E94643811E0281539054A055B050CF010E01093FE
:20522000C7058091C605181751F00E9412056093C2057093C3058093C4059093C5050E94AD
:2052400012058090C2059090C305A090C405B090C505681979098A099B09613171058105AD
:20526000910508F490C08091C10518131093C1050E94F4128091C7058093C6058091FE056A
:20528000811129C08091FD05882309F491C087E0EEEDF1E0DE01119601900D928A95E1F7C7
:2052A000E091DB0181E090E08C0F9D1F8E0F911DFC0110810E9400091092FD0580E80E9447
:2052C000F508612F70E066537E4F80EC96E00E943E1A0E9424091091DD01123029F48091D1
:2052E000C901823009F0A0C18091DD01823009F4F9C21DE0FDC2F89483E880937A0080912E
:205300006B01803220F060E088E00E943B0490917C0080917A0084FFFCCF8091E205809355
:205320007C0080917A00806480937A0080917A0084FFFCCF90937C0080916B01803220F03E
:2053400061E088E00E943B04209178003091790078948091040690910506820F931F9093A7
:2053600005068093040601CF80910306811107CF0E9442141092070660E270E080E090E0AA
:205380000E94DF04FCCEC701B60124E630E040E050E00E946438C20ED31EE41EF51EC0926F
:2053A0006C01D0926D01E0926E01F0926F0160CF8091FF0590910006A0910106B0910206F1
:2053C000892B8A2B8B2B09F086CF80910706811182CF4091D4055091D5056091D60570912D
:2053E000D7058091D0059091D105A091D205B091D30584179507A607B70708F4FAC0C0902B
:20540000D005D090D105E090D205F090D305C092D005D092D105E092D205F092D3058091CF
:20542000DB01882309F457CF8091CE059091CF0501969093CF058093CE059770892B09F0C1
:205440004ACF8091710161E070E002C0660F771F8A95E2F7072E000C880B990B0E944F36BB
:205460004B015C01C701B6010E944D369B01AC01C501B4010E945C3721ED35E443EE5FE44B
:205480000E94A5359B01AC010E945C3720E030E048E452E40E94A5350E94043720E030E037
:2054A00040E251E40E945C3720E030E040EF51E40E9434350E9417366B017093CD056093BE
:2054C000CC050E9400098091DB01813061F489E80E94F508B60180EC96E00E94001A8AEC82
:2054E00092E00E949B188091DB01823019F58091CC059091CD05813CEFEF9E070CF082C0E5
:2055000081589F4F66E070E00E942E38162F8EE80E94F5081A3028F463E580EC96E00E949A
:20552000DF02412F50E070E060E02AE080EC96E00E9482198091DB01833049F58091CC0571
:205540009091CD05813CFFEF9F070CF064C081589F4F66E070E00E942E38FE01319694EF39
:20556000960F8F0182E016162CF481E0860F65300CF085E0819363506913F4CF1D828CE843
:205580000E94F508B80180EC96E00E943E1A8091DB018430B9F48EE80E94F5088091DD0185
:2055A000823051F44091700150E070E060E02AE080EC96E00E94821965EE72E080EC96E042
:2055C0000E943E1A0E9424098091D0059091D105A091D205B091D305B695A7959795879535
:2055E0008093D0059093D105A093D205B093D30572CEC090D405D090D505E090D605F09037
:20560000D70505CF875B1AE0612F0E940E38819F102D11247CCF875B2AE0622F0E940E3844
:20562000829F602D112499CF8091FC05823009F4E5C008F089C0882309F4AAC0813009F4B8
:20564000C4C0C090FF05D0900006E0900106F0900206C114D104E104F10451F00E9412058F
:20566000C616D706E806F90618F480E00E94421481E10E941204892B09F47AC48091ED0514
:2056800082FD05C08091ED05857009F464C18091ED05807F90910906992309F4DCC19CE0A8
:2056A000892B8093ED058091ED05823209F466C308F0F9C1863108F0D0C1843108F09CC257
:2056C000813109F49FC28091FE05811107C09091E4058091FE05981709F480C5109109068E
:2056E0008091FE05813009F04AC4112309F449C4909109068091EC05890F8093EC058091C1
:20570000EC058C322CF48091EC0518160CF033C48091EC058C320CF030C48091EC058093D2
:20572000EC056091EC0582E00E94E61D8093EC05109209068091FE0560E081116091EC0512
:2057400081E00E94E61D23C4843009F492C008F46EC0853009F075CF0E9425190E941205A4
:20576000C090EF05D090F005E090F105F090F205C616D706E806F90608F063CF8091FB05D2
:2057800082FFAAC08A7F8093FB051093FC0559CF8CE00E941204892B71F41092F7051092B9
:2057A000F8051092F9051092FA050E94251981E08093FC0546CF8DE00E941204892B69F30C
:2057C0008091FB05837049F73CCF8091FB0580FFDCCF84608093FB058091F3059091F40525
:2057E000A091F505B091F6058093EF059093F005A093F105B093F20583E0DACF8091FB05A3
:2058000081FF6DC02091F3053091F4054091F5055091F605A3E0B0E00E94A7386093EF0556
:205820007093F0058093F1059093F205E5CF81E00E9442140E9412050091EF051091F0056C
:205840002091F1053091F205DC01CB01800F911FA21FB31F8093EF059093F005A093F10526
:20586000B093F2058091FB058C7F8093FB0584E09FCF0E9412050091EF051091F005209168
:20588000F1053091F2050617170728073907E8F480E00E9442140E9412050091F305109199
:2058A000F4052091F5053091F605DC01CB01800F911FA21FB31F8093EF059093F005A093BB
:2058C000F105B093F20585E073CF8091FB0584FFB8CE0E942519B5CE8D7F8093FB051092B3
:2058E000FC05AFCE8091EE051CE0882309F401CD809107068111A5CE812F0E941204892B75
:2059000009F09FCE1092F7051092F8051092F9051092FA0581E00E944214A8958091DD011E
:205920008230A1F46AE070E080E090E00E94DF0481E10E941204892B29F4812F0E941204DE
:20594000892B59F380E00E9442147BCE64E670E080E090E0EBCFF89480917A0084FFFCCF1D
:20596000E0907A00F0907C0080917A00877F80937A0080917A00876080937A0080E48093AD
:205980007C0061E070E080E090E00E94DF0481E10E94A5048C01E0927A00F0927C00789475
:2059A00081E08093ED050E9412056B017C0181E10E941204892B71F00E9412056C197D09EC
:2059C0008E099F096D3271408105910578F184E08093ED056AE070E080E090E00E94DF045B
:2059E0008091ED05843099F00E9412056C197D098E099F09643F71408105910540F481E15E
:205A00000E941204892BA1F082E08093ED0581E10E941204892B89F080910906882321F0FF
:205A20008091ED05843031F0A895F1CFA895BFCFA895D6CF8CE08093ED0590E10C3583E05E
:205A4000180720F0073D134020F490E28091ED0527CE90E3FBCF95E023CE8C3109F4D0C015
:205A6000813209F030CE8091FE05811171C11091DD018091E9059091EA05892B09F4FEC0A7
:205A80001092EA051092E9052091DD0181E090E0223011F090E080E089539E4FFC0180819B
:205AA0008093C60151C1823309F450C270F4843209F4C1C1813309F006CE8091FE05811176
:205AC00028C281E00E942D09FECD843309F449C28C3309F0F8CD81E10E941204892B09F4D1
:205AE00033C1A895809109068823A9F361E080E00E94E61D8091B30187FF35C28AE0809309
:205B0000B30161E084E00E94E61D80EC0E94F5088FEC92E00E949B180E94B61887EF84BF11
:205B20000FB6F894A89580916000886180936000109260000FBE809170008D7F809370002B
:205B400061E070E080E090E00E94DF041092880010928A0080917A00877F80937A008091DA
:205B60007A00876080937A0080E480937C000E9490086CED75E080E090E00E94DF04109265
:205B8000680010926B0010926C0010926D0010926E0010926F00109270001092600080912D
:205BA0006C00886080936C00809168008260809368008FEF8093640088E00E94F5085B984D
:205BC00083B7817F846083BF83B7816083BF789485B7806685BF8F7D85BF889583B78E7FE2
:205BE00083BF88E198E00FB6F894A895809360000FBE90936000FFCF82E08093FE0563CDBB
:205C000081E0FBCF8091FE05813041F48091EC058C3124F08091EC058232A4F08091FE052E
:205C2000882311F18091FE05813031F181E09091FE05923010F36091EC0584E00E94E61D9B
:205C400080E0DBCF0E9412056093F7057093F8058093F9059093FA058091EC058C5180936D
:205C6000EB051092FE052FCD8091EC058111DACF81E08093EC05D6CF82E0D9CF8091DD0153
:205C80008F5F8093DD018091DD01833010F01092DD018091DD01823011F41092E80581E06D
:205CA00090E0123011F090E080E02091C601FC01E953FE4F20834091DD0121E030E042308E
:205CC00011F030E020E029533E4FF90120812093C6012091E7058D539E4FFC0120832091DA
:205CE000DD0181E090E0223011F090E080E08D539E4FFC0180818093E7059091E6058091EB
:205D0000DD01917099871A86E985FA85EF53FE4F80838091E60560E380FF6FE284E00E9450
:205D2000E61D62E084E00E94E61D63E084E00E94E61D1092BF061092BE06123029F480918C
:205D4000DC0181110E94151981E08093C501BBCC8091FE05813011F41092FE058091FE05C0
:205D6000823008F4B0CC81E08093FE058093C5016091EC0584E00E94E61DA5CC8091E70550
:205D80008F5F8093E70581E08093E5058091DD01823039F48091E705883018F084E08093B6
:205DA000E7058091DD01823039F48091E705843019F486E08093C6018091DD01823079F41D
:205DC0008091E705853021F08091E705863039F48091C601873018F487E08093C601809133
:205DE000DD01823059F48091E705873039F48091C601883018F488E08093C6018091DD0118
:205E0000823031F08091E705843010F01092E7051092090663E080E00E94E61D63E084E0D0
:205E20000E94E61DA8956CED75E080E090E00E94DF04A89589CF2091E9053091EA0581E038
:205E400090E0232B11F090E080E09093EA058093E9058091E9059091EA05892B09F052C0D2
:205E60002091DD0181E090E0223011F090E080E089539E4FFC0180818093C6018091E905FF
:205E80009091EA05892B09F05FCF9091E60581E0911180E08093E6058091E60581708B87AB
:205EA0001C86EB85FC85EE0FFF1FEE0FFF1FE754FE4F80819181A281B3818093B50190933B
:205EC000B601A093B701B093B8018091E60581708D871E86ED85FE85EF53FE4F80818093E7
:205EE000DD018091DD01823079F085E08093C6018091DD01823051F484E08093E705109290
:205F0000E80522CF88E0B8CF86E0F0CF1092E7051BCF8091FE058091FE058230A9F481E03F
:205F20008093C5016091EC0584E00E94E61D81E09091FE05933009F060CE6091EC0586E0E6
:205F40000E94E61D83E059CE82E0F2CF8091B4018F5F8A3020F48093B40185E0A1CD81E071
:205F6000FACF8FEFAFCD61E084E00E94E61DB3CD1092ED05A8CB81E0D2CB8CE2D0CB111164
:205F8000D9CB9091E4058091FE059813D3CB8091FE058093E4058091FE05823009F01EC148
:205FA000112309F41BC180EC0E94F5088EE00E94F5088091EC05823069F59091E60580918D
:205FC000DD0191709F87188AEF85F889EF53FE4F80838091E60560E380FF6FE284E00E947E
:205FE000E61D81E08093C5011092BF061092BE068091DD01823009F471C385E08093C60186
:206000008091DD01823009F06BC384E08093E7051092E8058091EC05843019F481E080938F
:20602000C5018091EC058630C9F59091E6059170998B1A8AE989FA89EE0FFF1FEE0FFF1F24
:20604000E754FE4F40815181628173814093B5015093B6016093B7017093B8019091E605B8
:2060600091709B8B1C8AEB89FC89EF53FE4F90819093DD019091DD01923009F085E0809387
:20608000C6018091DD01823009F02DC384E08093E7051092E80581E08093C5018091EC0581
:2060A000873069F48091E9059091EA05892B09F41DC388E08093C60181E08093C50180919F
:2060C000EC058A30C9F5F8946091E3056095617029E937E741E050E080E00E948F09809100
:2060E0007C008093E0056091E3056095617029E937E741E050E081E00E948F0980917C00E4
:206100008093E10578946091E3056695617081E0682788E00E943B046091E30562FB6627D9
:2061200060F98EE00E9469046091E30562FB662760F98FE00E9469048091EC05843219F42A
:2061400081E08093C5018091EC05823221F08091EC05833211F40E9403098091EC058F3013
:20616000A1F48091B2018111C3C28CEB92E0A0E0B0E08093DC059093DD05A093DE05B09364
:20618000DF0560E184E00E94E61D8091EC05853219F481E08093C5018091EC058231A1F487
:2061A0006091B0017091B1018CED95E00E942E38CB01770FAA0BBB0B8093F3059093F405A0
:2061C000A093F505B093F6058091EC05833131F48091C901811191C21092FB058091FE0503
:2061E000811152C080910906882309F44DC0A0910906E091C60124E0E29FF0011124EF50C4
:20620000FE4F20813181428153818091E9059091EA05892B09F480C26091E9057091EA0576
:206220000A2E000CBB0BA29FC001A39F900DB29F900D1124860F971F9093EA058093E905F2
:206240008091E9059091EA058031974244F48091E9059091EA05813F984D0CF457C280918F
:20626000E9059091EA05803197420CF052C28091E9059091EA059093EA058093E90581E003
:206280008093C501109209068091C501882309F49BC180910306811197C1809107068111E5
:2062A00093C11092C5018091B4019091AF019817A1F094E0899FF0011124E75EFD4F408137
:2062C0005181628173814093B5015093B6016093B7017093B8018093AF012091E60580911B
:2062E000B5019091B601A091B701B091B80121702D8B1E8AED89FE89EE0FFF1FEE0FFF1F09
:20630000E754FE4F80839183A283B3830E94120568517C4F8F4F9F4F6093D8057093D905C9
:206320008093DA059093DB058091FE058111B7C0C090B501D090B601E090B701F090B801CD
:2063400080EC0E94F5088091E9059091EA0560E2892BD1F44091E6053091E6052091030646
:2063600081E090E0323011F090E080E030E08223932341704F8B188EEF89F88D8E2B9F2BFD
:2063800067E0892B09F466E080EC96E00E94DF028091E9059091EA05892B09F418C2C09070
:2063A000E905D090EA050D2C000CEE08FF0880EE92E00E949B188091E9059091EA056DE2CB
:2063C00097FF6BE280EC96E00E94DF0278EE872E73E0972EA12CB12CC701B601A5019401DE
:2063E0000E9464381B018C0157FF07C050954095309521953F4F4F4F5F4FBA01A90180ECB9
:2064000096E00E94CE19F8EE8F16F3E09F06A104B10441F020E4821622E492062FE0A206FE
:20642000B10429F46CE280EC96E00E94DF0261017801C501B4012AE030E040E050E00E9475
:20644000643849015A0131E083169104A104B10419F660E280EC96E00E94DF02E091DD015D
:20646000F0E0EE0FFF1FEE58FE4F6081718180EC96E00E943E1A60E280EC96E00E94DF0248
:206480008FEC0E94F5088091080666E5811101C062E580EC96E00E94DF020E9424096091B9
:2064A000B5017091B6018091B7019091B80120E432E44FE050E00E944238122F0BE02B31AE
:2064C00098F40CE0253180F40AE0223168F40DE02D3050F409E0293038F40EE0263020F48D
:2064E00008E0253009F00FE020917C012017D9F02F3F09F08DC10E94481981E090E0002E92
:2065000002C0880F991F0A94E2F70E948A056EE170E080E090E00E94DF0490E080E00E945C
:206520008A0500937C018AE01132E0F489E01B31C8F488E01731B0F487E0153198F486E0D7
:20654000113180F485E01D3068F484E0193050F483E0173038F482E0153020F481E0133051
:2065600008F480E08093B4018093AF018091DD014091AE0150E0823009F061C16091B50121
:206580007091B6018091B7019091B8010091DC051091DD052091DE053091DF05600F711F73
:2065A000821F931F30E020E00E94C6068091E9059091EA05892B41F08091E9059091EA0507
:2065C0000E9466020E945B05C090D805D090D905E090DA05F090DB05C114D104E104F10411
:2065E000B9F00E941205C616D706E806F90680F48091E6056EE280FF6DE284E00E94E61DFC
:206600001092D8051092D9051092DA051092DB058091DD01823009F052C1C090F705D0901F
:20662000F805E090F905F090FA05C114D104E104F10409F444C10E941205C616D706E8068A
:20664000F90608F03CC1C090EB0580E3C89E60011124E12C86010E0D111D02581E4FF8010A
:206660008081882309F458C180E80E94F5084E2D50E070E060E02AE080EC96E00E948219ED
:2066800063EE72E080EC96E00E943E1AF8018081F12CEF2DF0E0EB51FD4FE491EE23E1F099
:2066A0008E1338C1A89510E88F2D812316958823D9F31111DDC06091F3057091F4058091D6
:2066C000F5059091F60532E0660F771F881F991F3A95D1F70E94DF04E394BCCF86E08ECC4A
:2066E0001092E70597CC1092E705D5CC86E0E2CC88E592E0A0E0B0E03CCD813021F480E147
:206700008093FB056BCD8230D9F368CD81EF98EDB2CD8FE097E2AFCDC090B501D090B60186
:20672000E090B701F090B8010A2E000CBB0B0E94B238C60ED71EE81EF91EC092B501D09212
:20674000B601E092B701F092B8018091B5019091B601A091B701B091B80181159A4CAA492C
:20676000BB436CF48091B5019091B601A091B701B091B801181619061A061B06F4F48091B2
:20678000B5019091B601A091B701B091B80181159A4CAA49BB43B4F48091B5019091B601D4
:2067A000A091B701B091B8018093B5019093B601A093B701B093B80162CD81E090E0A0E0EC
:2067C000B0E0F2CF8FEF99ECAAE9BBE3EDCFC701B60120E836E948E950E00E946438232BE5
:2067E000242B252B69F460E280EC96E00E94DF0260E4862E62E4962E6FE0A62EB12CECCD3B
:2068000050E8852E56E9952E58E9A52EB12CE4CD81E090E002C0880F991F2A95E2F780955A
:20682000909581600E948A056EE170E080E090E00E94DF0490E080E00E948A055ECE8091EF
:20684000DD01811109C06091B5017091B6018091B7019091B801A6CE6091B5017091B6012A
:206860008091B7019091B8019A0150E040E09CCE81E00E9442148F2D812321E030E040E036
:2068800050E021F023E030E040E050E06091F3057091F4058091F5059091F6050E94FE3773
:2068A0000E94B4158823B1F080E00E9442141092F7051092F8051092F9051092FA05A8950E
:2068C0000E945003882311F40C9489280E94C31A0C94842880E00E9442148090F305909077
:2068E000F405A090F505B090F605C501B4010E94B4158111DCCF169509F0BACFC501B4016F
:20690000660F771F881F991F0E94B415882309F4E3CECDCFF394BDCEE091EB0520E3E29FB6
:20692000F0011124E258FE4F8081833409F0BFCF8181813509F0BBCF80917D01882309F4F9
